{
    "contractName": "GLTMerchantSale",
    "abi": [
        {
            "constant": false,
            "inputs": [
                {
                    "internalType": "address",
                    "name": "beneficiary",
                    "type": "address"
                },
                {
                    "internalType": "uint256",
                    "name": "amountInEUR",
                    "type": "uint256"
                }
            ],
            "name": "buyTokens",
            "outputs": [],
            "payable": true,
            "stateMutability": "payable",
            "type": "function"
        },
        {
            "constant": true,
            "inputs": [
                {
                    "internalType": "address",
                    "name": "account",
                    "type": "address"
                }
            ],
            "name": "isMerchant",
            "outputs": [
                {
                    "internalType": "bool",
                    "name": "",
                    "type": "bool"
                }
            ],
            "payable": false,
            "stateMutability": "view",
            "type": "function"
        },
        {
            "constant": true,
            "inputs": [],
            "name": "rate",
            "outputs": [
                {
                    "internalType": "uint256",
                    "name": "",
                    "type": "uint256"
                }
            ],
            "payable": false,
            "stateMutability": "view",
            "type": "function"
        },
        {
            "constant": false,
            "inputs": [],
            "name": "renounceMerchant",
            "outputs": [],
            "payable": false,
            "stateMutability": "nonpayable",
            "type": "function"
        },
        {
            "constant": true,
            "inputs": [],
            "name": "weiRaised",
            "outputs": [
                {
                    "internalType": "uint256",
                    "name": "",
                    "type": "uint256"
                }
            ],
            "payable": false,
            "stateMutability": "view",
            "type": "function"
        },
        {
            "constant": true,
            "inputs": [],
            "name": "wallet",
            "outputs": [
                {
                    "internalType": "address payable",
                    "name": "",
                    "type": "address"
                }
            ],
            "payable": false,
            "stateMutability": "view",
            "type": "function"
        },
        {
            "constant": false,
            "inputs": [],
            "name": "renounceOwnership",
            "outputs": [],
            "payable": false,
            "stateMutability": "nonpayable",
            "type": "function"
        },
        {
            "constant": false,
            "inputs": [],
            "name": "destroy",
            "outputs": [],
            "payable": false,
            "stateMutability": "nonpayable",
            "type": "function"
        },
        {
            "constant": true,
            "inputs": [],
            "name": "owner",
            "outputs": [
                {
                    "internalType": "address",
                    "name": "",
                    "type": "address"
                }
            ],
            "payable": false,
            "stateMutability": "view",
            "type": "function"
        },
        {
            "constant": true,
            "inputs": [],
            "name": "isOwner",
            "outputs": [
                {
                    "internalType": "bool",
                    "name": "",
                    "type": "bool"
                }
            ],
            "payable": false,
            "stateMutability": "view",
            "type": "function"
        },
        {
            "constant": true,
            "inputs": [],
            "name": "price",
            "outputs": [
                {
                    "internalType": "contract FiatContract",
                    "name": "",
                    "type": "address"
                }
            ],
            "payable": false,
            "stateMutability": "view",
            "type": "function"
        },
        {
            "constant": false,
            "inputs": [
                {
                    "internalType": "address",
                    "name": "account",
                    "type": "address"
                }
            ],
            "name": "addMerchant",
            "outputs": [],
            "payable": false,
            "stateMutability": "nonpayable",
            "type": "function"
        },
        {
            "constant": true,
            "inputs": [
                {
                    "internalType": "uint256",
                    "name": "amountInEUR",
                    "type": "uint256"
                }
            ],
            "name": "getTokenAmount",
            "outputs": [
                {
                    "internalType": "uint256",
                    "name": "",
                    "type": "uint256"
                }
            ],
            "payable": false,
            "stateMutability": "view",
            "type": "function"
        },
        {
            "constant": false,
            "inputs": [
                {
                    "internalType": "address",
                    "name": "beneficiary",
                    "type": "address"
                }
            ],
            "name": "buyTokens",
            "outputs": [],
            "payable": true,
            "stateMutability": "payable",
            "type": "function"
        },
        {
            "constant": false,
            "inputs": [
                {
                    "internalType": "address",
                    "name": "newOwner",
                    "type": "address"
                }
            ],
            "name": "transferOwnership",
            "outputs": [],
            "payable": false,
            "stateMutability": "nonpayable",
            "type": "function"
        },
        {
            "constant": false,
            "inputs": [
                {
                    "internalType": "address payable",
                    "name": "recipient",
                    "type": "address"
                }
            ],
            "name": "destroyAndSend",
            "outputs": [],
            "payable": false,
            "stateMutability": "nonpayable",
            "type": "function"
        },
        {
            "constant": true,
            "inputs": [],
            "name": "token",
            "outputs": [
                {
                    "internalType": "contract IERC20",
                    "name": "",
                    "type": "address"
                }
            ],
            "payable": false,
            "stateMutability": "view",
            "type": "function"
        },
        {
            "inputs": [
                {
                    "internalType": "uint256",
                    "name": "rate",
                    "type": "uint256"
                },
                {
                    "internalType": "address payable",
                    "name": "wallet",
                    "type": "address"
                },
                {
                    "internalType": "contract GoodLifeToken",
                    "name": "token",
                    "type": "address"
                }
            ],
            "payable": false,
            "stateMutability": "nonpayable",
            "type": "constructor"
        },
        {
            "payable": true,
            "stateMutability": "payable",
            "type": "fallback"
        },
        {
            "anonymous": false,
            "inputs": [
                {
                    "indexed": true,
                    "internalType": "address",
                    "name": "account",
                    "type": "address"
                },
                {
                    "indexed": false,
                    "internalType": "address",
                    "name": "beneficiary",
                    "type": "address"
                },
                {
                    "indexed": false,
                    "internalType": "uint256",
                    "name": "amountOfTokens",
                    "type": "uint256"
                }
            ],
            "name": "TokensPurchased",
            "type": "event"
        },
        {
            "anonymous": false,
            "inputs": [
                {
                    "indexed": true,
                    "internalType": "address",
                    "name": "account",
                    "type": "address"
                }
            ],
            "name": "MerchantAdded",
            "type": "event"
        },
        {
            "anonymous": false,
            "inputs": [
                {
                    "indexed": true,
                    "internalType": "address",
                    "name": "account",
                    "type": "address"
                }
            ],
            "name": "MerchantRemoved",
            "type": "event"
        },
        {
            "anonymous": false,
            "inputs": [
                {
                    "indexed": true,
                    "internalType": "address",
                    "name": "previousOwner",
                    "type": "address"
                },
                {
                    "indexed": true,
                    "internalType": "address",
                    "name": "newOwner",
                    "type": "address"
                }
            ],
            "name": "OwnershipTransferred",
            "type": "event"
        },
        {
            "anonymous": false,
            "inputs": [
                {
                    "indexed": true,
                    "internalType": "address",
                    "name": "purchaser",
                    "type": "address"
                },
                {
                    "indexed": true,
                    "internalType": "address",
                    "name": "beneficiary",
                    "type": "address"
                },
                {
                    "indexed": false,
                    "internalType": "uint256",
                    "name": "value",
                    "type": "uint256"
                },
                {
                    "indexed": false,
                    "internalType": "uint256",
                    "name": "amount",
                    "type": "uint256"
                }
            ],
            "name": "TokensPurchased",
            "type": "event"
        }
    ],
    "bytecode": "6080604052600a805460ff60a01b191690553480156200001e57600080fd5b506040516200140338038062001403833981810160405260608110156200004457600080fd5b5080516020820151604090920151600160005590919082828282620000ca57604080517f08c379a000000000000000000000000000000000000000000000000000000000815260206004820152601460248201527f43726f776473616c653a20726174652069732030000000000000000000000000604482015290519081900360640190fd5b6001600160a01b0382166200012b576040517f08c379a0000000000000000000000000000000000000000000000000000000008152600401808060200182810382526025815260200180620013de6025913960400191505060405180910390fd5b6001600160a01b0381166200018c576040517f08c379a0000000000000000000000000000000000000000000000000000000008152600401808060200182810382526024815260200180620013986024913960400191505060405180910390fd5b600392909255600280546001600160a01b039283166001600160a01b0319918216179091556001805493831693821693909317909255600580549092163317918290556040519116906000907f8be0079c531659141344cd1fd0a4f28419497f9722a3daafe3b4186f6b6457e0908290a362000211336001600160e01b036200025016565b60089290925550600060075560098054336001600160a01b031991821617909155600a80549091166001600160a01b03909216919091179055620003cc565b6200026b816006620002a260201b62000dfe1790919060201c565b6040516001600160a01b038216907fc197da77b28f3c45c06c05226a579905fd0692f6603bd04fa0ed262f79e9195890600090a250565b620002b782826001600160e01b036200034916565b156200032457604080517f08c379a000000000000000000000000000000000000000000000000000000000815260206004820152601f60248201527f526f6c65733a206163636f756e7420616c72656164792068617320726f6c6500604482015290519081900360640190fd5b6001600160a01b0316600090815260209190915260409020805460ff19166001179055565b60006001600160a01b038216620003ac576040517f08c379a0000000000000000000000000000000000000000000000000000000008152600401808060200182810382526022815260200180620013bc6022913960400191505060405180910390fd5b506001600160a01b03166000908152602091909152604090205460ff1690565b610fbc80620003dc6000396000f3fe6080604052600436106100fe5760003560e01c80638da5cb5b11610095578063c2507ac111610064578063c2507ac11461029a578063ec8ac4d8146102c4578063f2fde38b146102ea578063f5074f411461031d578063fc0c546a14610350576100fe565b80638da5cb5b146102285780638f32d59b1461023d578063a035b1fe14610252578063bf76c0ef14610267576100fe565b80634042b66f116100d15780634042b66f146101b8578063521eb273146101cd578063715018a6146101fe57806383197ef014610213576100fe565b80630752881a146101095780631a2f7167146101355780632c4e722e1461017c57806331b10251146101a3575b61010733610365565b005b6101076004803603604081101561011f57600080fd5b506001600160a01b038135169060200135610469565b34801561014157600080fd5b506101686004803603602081101561015857600080fd5b50356001600160a01b0316610651565b604080519115158252519081900360200190f35b34801561018857600080fd5b5061019161066a565b60408051918252519081900360200190f35b3480156101af57600080fd5b50610107610670565b3480156101c457600080fd5b5061019161067b565b3480156101d957600080fd5b506101e2610681565b604080516001600160a01b039092168252519081900360200190f35b34801561020a57600080fd5b50610107610690565b34801561021f57600080fd5b50610107610721565b34801561023457600080fd5b506101e2610776565b34801561024957600080fd5b50610168610785565b34801561025e57600080fd5b506101e2610796565b34801561027357600080fd5b506101076004803603602081101561028a57600080fd5b50356001600160a01b03166107a5565b3480156102a657600080fd5b50610191600480360360208110156102bd57600080fd5b50356107f5565b610107600480360360208110156102da57600080fd5b50356001600160a01b0316610365565b3480156102f657600080fd5b506101076004803603602081101561030d57600080fd5b50356001600160a01b031661083d565b34801561032957600080fd5b506101076004803603602081101561034057600080fd5b50356001600160a01b031661088d565b34801561035c57600080fd5b506101e26108e0565b60008054600101908190553461037b83826108ef565b600061038682610986565b60045490915061039c908363ffffffff61099d16565b6004556103a984826109f7565b604080518381526020810183905281516001600160a01b0387169233927f6faf93231a456e552dbc9961f58d9713ee4f2e69d15f1975b050ef0911053a7b929081900390910190a36103fb8483610465565b610403610a01565b61040d8483610465565b50506000548114610465576040805162461bcd60e51b815260206004820152601f60248201527f5265656e7472616e637947756172643a207265656e7472616e742063616c6c00604482015290519081900360640190fd5b5050565b600080546001019081905561047c610785565b6104bb576040805162461bcd60e51b81526020600482018190526024820152600080516020610f1c833981519152604482015290519081900360640190fd5b600a54600160a01b900460ff166105f6576104d533610651565b6105105760405162461bcd60e51b8152600401808060200182810382526034815260200180610ea66034913960400191505060405180910390fd5b600b80546001600160a01b0319908116738055d0504666e2b6942beb8d6014c964658ca5911716732cde56e5c8235d6360ccbb0c57ce248ca9c80909179055600061055a83610a3a565b905061056684826108ef565b6000610571846107f5565b600754909150610587908363ffffffff61099d16565b600755604080516001600160a01b038716815260208101839052815133927ff9b4eb3e43eebbf559e9b96ceff1c786a7edab2938c7f5f80678197c2e0edba5928290030190a26105d785826109f7565b6105e18583610465565b6105e9610a01565b6105f38583610465565b50505b600054811461064c576040805162461bcd60e51b815260206004820152601f60248201527f5265656e7472616e637947756172643a207265656e7472616e742063616c6c00604482015290519081900360640190fd5b505050565b600061066460068363ffffffff610a5816565b92915050565b60035490565b61067933610abf565b565b60075490565b6002546001600160a01b031690565b610698610785565b6106d7576040805162461bcd60e51b81526020600482018190526024820152600080516020610f1c833981519152604482015290519081900360640190fd5b6005546040516000916001600160a01b0316907f8be0079c531659141344cd1fd0a4f28419497f9722a3daafe3b4186f6b6457e0908390a3600580546001600160a01b0319169055565b610729610785565b610768576040805162461bcd60e51b81526020600482018190526024820152600080516020610f1c833981519152604482015290519081900360640190fd5b6009546001600160a01b0316ff5b6005546001600160a01b031690565b6005546001600160a01b0316331490565b600b546001600160a01b031681565b6107ae33610651565b6107e95760405162461bcd60e51b8152600401808060200182810382526034815260200180610ea66034913960400191505060405180910390fd5b6107f281610b07565b50565b60008061081f606461081385652d79883d200063ffffffff610b4f16565b9063ffffffff610b4f16565b905061083660085482610ba890919063ffffffff16565b9392505050565b610845610785565b610884576040805162461bcd60e51b81526020600482018190526024820152600080516020610f1c833981519152604482015290519081900360640190fd5b6107f281610c12565b610895610785565b6108d4576040805162461bcd60e51b81526020600482018190526024820152600080516020610f1c833981519152604482015290519081900360640190fd5b806001600160a01b0316ff5b6001546001600160a01b031690565b6001600160a01b0382166109345760405162461bcd60e51b815260040180806020018281038252602a815260200180610f5e602a913960400191505060405180910390fd5b80610465576040805162461bcd60e51b815260206004820152601960248201527f43726f776473616c653a20776569416d6f756e74206973203000000000000000604482015290519081900360640190fd5b600061066460035483610b4f90919063ffffffff16565b600082820183811015610836576040805162461bcd60e51b815260206004820152601b60248201527f536166654d6174683a206164646974696f6e206f766572666c6f770000000000604482015290519081900360640190fd5b6104658282610cb3565b6002546040516001600160a01b03909116903480156108fc02916000818181858888f193505050501580156107f2573d6000803e3d6000fd5b6000652d79883d20006108366064610813838663ffffffff610b4f16565b60006001600160a01b038216610a9f5760405162461bcd60e51b8152600401808060200182810382526022815260200180610f3c6022913960400191505060405180910390fd5b506001600160a01b03166000908152602091909152604090205460ff1690565b610ad060068263ffffffff610d9716565b6040516001600160a01b038216907fae4bdf5adabafca6721399496d24fe50fb6564effcb386fbae92de33540763bc90600090a250565b610b1860068263ffffffff610dfe16565b6040516001600160a01b038216907fc197da77b28f3c45c06c05226a579905fd0692f6603bd04fa0ed262f79e9195890600090a250565b600082610b5e57506000610664565b82820282848281610b6b57fe5b04146108365760405162461bcd60e51b8152600401808060200182810382526021815260200180610efb6021913960400191505060405180910390fd5b6000808211610bfe576040805162461bcd60e51b815260206004820152601a60248201527f536166654d6174683a206469766973696f6e206279207a65726f000000000000604482015290519081900360640190fd5b6000828481610c0957fe5b04949350505050565b6001600160a01b038116610c575760405162461bcd60e51b8152600401808060200182810382526026815260200180610e806026913960400191505060405180910390fd5b6005546040516001600160a01b038084169216907f8be0079c531659141344cd1fd0a4f28419497f9722a3daafe3b4186f6b6457e090600090a3600580546001600160a01b0319166001600160a01b0392909216919091179055565b610cbb6108e0565b6001600160a01b03166340c10f1983836040518363ffffffff1660e01b815260040180836001600160a01b03166001600160a01b0316815260200182815260200192505050602060405180830381600087803b158015610d1a57600080fd5b505af1158015610d2e573d6000803e3d6000fd5b505050506040513d6020811015610d4457600080fd5b5051610465576040805162461bcd60e51b815260206004820152601f60248201527f4d696e74656443726f776473616c653a206d696e74696e67206661696c656400604482015290519081900360640190fd5b610da18282610a58565b610ddc5760405162461bcd60e51b8152600401808060200182810382526021815260200180610eda6021913960400191505060405180910390fd5b6001600160a01b0316600090815260209190915260409020805460ff19169055565b610e088282610a58565b15610e5a576040805162461bcd60e51b815260206004820152601f60248201527f526f6c65733a206163636f756e7420616c72656164792068617320726f6c6500604482015290519081900360640190fd5b6001600160a01b0316600090815260209190915260409020805460ff1916600117905556fe4f776e61626c653a206e6577206f776e657220697320746865207a65726f20616464726573734d65726368616e74526f6c653a2063616c6c657220646f6573206e6f74206861766520746865204d65726368616e7420726f6c65526f6c65733a206163636f756e7420646f6573206e6f74206861766520726f6c65536166654d6174683a206d756c7469706c69636174696f6e206f766572666c6f774f776e61626c653a2063616c6c6572206973206e6f7420746865206f776e6572526f6c65733a206163636f756e7420697320746865207a65726f206164647265737343726f776473616c653a2062656e656669636961727920697320746865207a65726f2061646472657373a265627a7a7231582031aa8748a093c5b0130bd9ddab6969c2f42f056d33bf87f4d96d6550a6fb55bc64736f6c634300050b003243726f776473616c653a20746f6b656e20697320746865207a65726f2061646472657373526f6c65733a206163636f756e7420697320746865207a65726f206164647265737343726f776473616c653a2077616c6c657420697320746865207a65726f2061646472657373",
    "sourcePath": "/home/markus/Ethereum/final-project/good-life-token/contracts/GLTMerchantSale.sol",
    "compiler": {
        "name": "solc",
        "version": "0.5.11+commit.c082d0b4"
    },
    "functionHashes": {
        "addMerchant(address)": "bf76c0ef",
        "buyTokens(address)": "ec8ac4d8",
        "buyTokens(address,uint256)": "0752881a",
        "destroy()": "83197ef0",
        "destroyAndSend(address)": "f5074f41",
        "getTokenAmount(uint256)": "c2507ac1",
        "isMerchant(address)": "1a2f7167",
        "isOwner()": "8f32d59b",
        "owner()": "8da5cb5b",
        "price()": "a035b1fe",
        "rate()": "2c4e722e",
        "renounceMerchant()": "31b10251",
        "renounceOwnership()": "715018a6",
        "token()": "fc0c546a",
        "transferOwnership(address)": "f2fde38b",
        "wallet()": "521eb273",
        "weiRaised()": "4042b66f"
    },
    "gasEstimates": {
        "creation": {
            "codeDepositCost": "805600",
            "executionCost": "infinite",
            "totalCost": "infinite"
        },
        "external": {
            "": "infinite",
            "addMerchant(address)": "infinite",
            "buyTokens(address)": "infinite",
            "buyTokens(address,uint256)": "infinite",
            "destroy()": "infinite",
            "destroyAndSend(address)": "infinite",
            "getTokenAmount(uint256)": "infinite",
            "isMerchant(address)": "infinite",
            "isOwner()": "472",
            "owner()": "460",
            "price()": "504",
            "rate()": "466",
            "renounceMerchant()": "infinite",
            "renounceOwnership()": "infinite",
            "token()": "547",
            "transferOwnership(address)": "infinite",
            "wallet()": "482",
            "weiRaised()": "421"
        },
        "internal": {
            "amountOfETHInEUR(uint256)": "infinite"
        }
    }
}