{
    "contractName": "GoodLifeToken",
    "abi": [
        {
            "constant": true,
            "inputs": [],
            "name": "name",
            "outputs": [
                {
                    "internalType": "string",
                    "name": "",
                    "type": "string"
                }
            ],
            "payable": false,
            "stateMutability": "view",
            "type": "function"
        },
        {
            "constant": false,
            "inputs": [
                {
                    "internalType": "address",
                    "name": "spender",
                    "type": "address"
                },
                {
                    "internalType": "uint256",
                    "name": "value",
                    "type": "uint256"
                }
            ],
            "name": "approve",
            "outputs": [
                {
                    "internalType": "bool",
                    "name": "",
                    "type": "bool"
                }
            ],
            "payable": false,
            "stateMutability": "nonpayable",
            "type": "function"
        },
        {
            "constant": true,
            "inputs": [],
            "name": "totalSupply",
            "outputs": [
                {
                    "internalType": "uint256",
                    "name": "",
                    "type": "uint256"
                }
            ],
            "payable": false,
            "stateMutability": "view",
            "type": "function"
        },
        {
            "constant": false,
            "inputs": [
                {
                    "internalType": "address",
                    "name": "from",
                    "type": "address"
                },
                {
                    "internalType": "address",
                    "name": "to",
                    "type": "address"
                },
                {
                    "internalType": "uint256",
                    "name": "amountOfTokens",
                    "type": "uint256"
                }
            ],
            "name": "collectTokens",
            "outputs": [
                {
                    "internalType": "bool",
                    "name": "success",
                    "type": "bool"
                }
            ],
            "payable": false,
            "stateMutability": "nonpayable",
            "type": "function"
        },
        {
            "constant": false,
            "inputs": [
                {
                    "internalType": "address",
                    "name": "from",
                    "type": "address"
                },
                {
                    "internalType": "address",
                    "name": "to",
                    "type": "address"
                },
                {
                    "internalType": "uint256",
                    "name": "tokens",
                    "type": "uint256"
                }
            ],
            "name": "transferFrom",
            "outputs": [
                {
                    "internalType": "bool",
                    "name": "success",
                    "type": "bool"
                }
            ],
            "payable": false,
            "stateMutability": "nonpayable",
            "type": "function"
        },
        {
            "constant": true,
            "inputs": [
                {
                    "internalType": "address",
                    "name": "account",
                    "type": "address"
                }
            ],
            "name": "isCustomer",
            "outputs": [
                {
                    "internalType": "bool",
                    "name": "",
                    "type": "bool"
                }
            ],
            "payable": false,
            "stateMutability": "view",
            "type": "function"
        },
        {
            "constant": true,
            "inputs": [],
            "name": "getTransactionCounter",
            "outputs": [
                {
                    "internalType": "uint256",
                    "name": "",
                    "type": "uint256"
                }
            ],
            "payable": false,
            "stateMutability": "view",
            "type": "function"
        },
        {
            "constant": true,
            "inputs": [],
            "name": "decimals",
            "outputs": [
                {
                    "internalType": "uint8",
                    "name": "",
                    "type": "uint8"
                }
            ],
            "payable": false,
            "stateMutability": "view",
            "type": "function"
        },
        {
            "constant": true,
            "inputs": [],
            "name": "canPause",
            "outputs": [
                {
                    "internalType": "bool",
                    "name": "",
                    "type": "bool"
                }
            ],
            "payable": false,
            "stateMutability": "view",
            "type": "function"
        },
        {
            "constant": false,
            "inputs": [
                {
                    "internalType": "address",
                    "name": "spender",
                    "type": "address"
                },
                {
                    "internalType": "uint256",
                    "name": "addedValue",
                    "type": "uint256"
                }
            ],
            "name": "increaseAllowance",
            "outputs": [
                {
                    "internalType": "bool",
                    "name": "",
                    "type": "bool"
                }
            ],
            "payable": false,
            "stateMutability": "nonpayable",
            "type": "function"
        },
        {
            "constant": true,
            "inputs": [],
            "name": "_totalSupply",
            "outputs": [
                {
                    "internalType": "uint256",
                    "name": "",
                    "type": "uint256"
                }
            ],
            "payable": false,
            "stateMutability": "view",
            "type": "function"
        },
        {
            "constant": false,
            "inputs": [],
            "name": "unpause",
            "outputs": [],
            "payable": false,
            "stateMutability": "nonpayable",
            "type": "function"
        },
        {
            "constant": false,
            "inputs": [
                {
                    "internalType": "address",
                    "name": "account",
                    "type": "address"
                },
                {
                    "internalType": "uint256",
                    "name": "amount",
                    "type": "uint256"
                }
            ],
            "name": "mint",
            "outputs": [
                {
                    "internalType": "bool",
                    "name": "",
                    "type": "bool"
                }
            ],
            "payable": false,
            "stateMutability": "nonpayable",
            "type": "function"
        },
        {
            "constant": false,
            "inputs": [],
            "name": "notPausable",
            "outputs": [],
            "payable": false,
            "stateMutability": "nonpayable",
            "type": "function"
        },
        {
            "constant": true,
            "inputs": [
                {
                    "internalType": "uint256",
                    "name": "transactionId",
                    "type": "uint256"
                }
            ],
            "name": "getTransactionAmount",
            "outputs": [
                {
                    "internalType": "uint256",
                    "name": "amount",
                    "type": "uint256"
                }
            ],
            "payable": false,
            "stateMutability": "view",
            "type": "function"
        },
        {
            "constant": true,
            "inputs": [],
            "name": "paused",
            "outputs": [
                {
                    "internalType": "bool",
                    "name": "",
                    "type": "bool"
                }
            ],
            "payable": false,
            "stateMutability": "view",
            "type": "function"
        },
        {
            "constant": true,
            "inputs": [
                {
                    "internalType": "address",
                    "name": "account",
                    "type": "address"
                }
            ],
            "name": "balanceOf",
            "outputs": [
                {
                    "internalType": "uint256",
                    "name": "",
                    "type": "uint256"
                }
            ],
            "payable": false,
            "stateMutability": "view",
            "type": "function"
        },
        {
            "constant": false,
            "inputs": [],
            "name": "renounceOwnership",
            "outputs": [],
            "payable": false,
            "stateMutability": "nonpayable",
            "type": "function"
        },
        {
            "constant": false,
            "inputs": [],
            "name": "pause",
            "outputs": [],
            "payable": false,
            "stateMutability": "nonpayable",
            "type": "function"
        },
        {
            "constant": true,
            "inputs": [],
            "name": "owner",
            "outputs": [
                {
                    "internalType": "address",
                    "name": "",
                    "type": "address"
                }
            ],
            "payable": false,
            "stateMutability": "view",
            "type": "function"
        },
        {
            "constant": true,
            "inputs": [],
            "name": "isOwner",
            "outputs": [
                {
                    "internalType": "bool",
                    "name": "",
                    "type": "bool"
                }
            ],
            "payable": false,
            "stateMutability": "view",
            "type": "function"
        },
        {
            "constant": true,
            "inputs": [],
            "name": "symbol",
            "outputs": [
                {
                    "internalType": "string",
                    "name": "",
                    "type": "string"
                }
            ],
            "payable": false,
            "stateMutability": "view",
            "type": "function"
        },
        {
            "constant": false,
            "inputs": [
                {
                    "internalType": "address",
                    "name": "account",
                    "type": "address"
                }
            ],
            "name": "addMinter",
            "outputs": [],
            "payable": false,
            "stateMutability": "nonpayable",
            "type": "function"
        },
        {
            "constant": false,
            "inputs": [],
            "name": "renounceMinter",
            "outputs": [],
            "payable": false,
            "stateMutability": "nonpayable",
            "type": "function"
        },
        {
            "constant": false,
            "inputs": [
                {
                    "internalType": "address",
                    "name": "spender",
                    "type": "address"
                },
                {
                    "internalType": "uint256",
                    "name": "subtractedValue",
                    "type": "uint256"
                }
            ],
            "name": "decreaseAllowance",
            "outputs": [
                {
                    "internalType": "bool",
                    "name": "",
                    "type": "bool"
                }
            ],
            "payable": false,
            "stateMutability": "nonpayable",
            "type": "function"
        },
        {
            "constant": true,
            "inputs": [
                {
                    "internalType": "uint256",
                    "name": "transactionId",
                    "type": "uint256"
                }
            ],
            "name": "getTransactionRecipientAddress",
            "outputs": [
                {
                    "internalType": "address",
                    "name": "to",
                    "type": "address"
                }
            ],
            "payable": false,
            "stateMutability": "view",
            "type": "function"
        },
        {
            "constant": false,
            "inputs": [
                {
                    "internalType": "address",
                    "name": "recipient",
                    "type": "address"
                },
                {
                    "internalType": "uint256",
                    "name": "amount",
                    "type": "uint256"
                }
            ],
            "name": "transfer",
            "outputs": [
                {
                    "internalType": "bool",
                    "name": "",
                    "type": "bool"
                }
            ],
            "payable": false,
            "stateMutability": "nonpayable",
            "type": "function"
        },
        {
            "constant": true,
            "inputs": [
                {
                    "internalType": "address",
                    "name": "account",
                    "type": "address"
                }
            ],
            "name": "isMinter",
            "outputs": [
                {
                    "internalType": "bool",
                    "name": "",
                    "type": "bool"
                }
            ],
            "payable": false,
            "stateMutability": "view",
            "type": "function"
        },
        {
            "constant": false,
            "inputs": [],
            "name": "renounceCustomer",
            "outputs": [],
            "payable": false,
            "stateMutability": "nonpayable",
            "type": "function"
        },
        {
            "constant": false,
            "inputs": [
                {
                    "internalType": "address",
                    "name": "account",
                    "type": "address"
                }
            ],
            "name": "addCustomer",
            "outputs": [],
            "payable": false,
            "stateMutability": "nonpayable",
            "type": "function"
        },
        {
            "constant": true,
            "inputs": [],
            "name": "gltOwner",
            "outputs": [
                {
                    "internalType": "address",
                    "name": "",
                    "type": "address"
                }
            ],
            "payable": false,
            "stateMutability": "view",
            "type": "function"
        },
        {
            "constant": true,
            "inputs": [
                {
                    "internalType": "uint256",
                    "name": "transactionId",
                    "type": "uint256"
                }
            ],
            "name": "getTransactionSenderAddress",
            "outputs": [
                {
                    "internalType": "address",
                    "name": "from",
                    "type": "address"
                }
            ],
            "payable": false,
            "stateMutability": "view",
            "type": "function"
        },
        {
            "constant": false,
            "inputs": [
                {
                    "internalType": "address",
                    "name": "from",
                    "type": "address"
                },
                {
                    "internalType": "uint256",
                    "name": "numberOfTokensToRedeem",
                    "type": "uint256"
                }
            ],
            "name": "redeemTokens",
            "outputs": [
                {
                    "internalType": "bool",
                    "name": "success",
                    "type": "bool"
                }
            ],
            "payable": false,
            "stateMutability": "nonpayable",
            "type": "function"
        },
        {
            "constant": true,
            "inputs": [
                {
                    "internalType": "address",
                    "name": "owner",
                    "type": "address"
                },
                {
                    "internalType": "address",
                    "name": "spender",
                    "type": "address"
                }
            ],
            "name": "allowance",
            "outputs": [
                {
                    "internalType": "uint256",
                    "name": "",
                    "type": "uint256"
                }
            ],
            "payable": false,
            "stateMutability": "view",
            "type": "function"
        },
        {
            "constant": true,
            "inputs": [
                {
                    "internalType": "uint256",
                    "name": "transactionId",
                    "type": "uint256"
                }
            ],
            "name": "getTransactionType",
            "outputs": [
                {
                    "internalType": "string",
                    "name": "typeOfTransaction",
                    "type": "string"
                }
            ],
            "payable": false,
            "stateMutability": "view",
            "type": "function"
        },
        {
            "constant": false,
            "inputs": [
                {
                    "internalType": "address",
                    "name": "newOwner",
                    "type": "address"
                }
            ],
            "name": "transferOwnership",
            "outputs": [],
            "payable": false,
            "stateMutability": "nonpayable",
            "type": "function"
        },
        {
            "inputs": [],
            "payable": false,
            "stateMutability": "nonpayable",
            "type": "constructor"
        },
        {
            "anonymous": false,
            "inputs": [
                {
                    "indexed": false,
                    "internalType": "address",
                    "name": "from",
                    "type": "address"
                },
                {
                    "indexed": false,
                    "internalType": "address",
                    "name": "to",
                    "type": "address"
                },
                {
                    "indexed": false,
                    "internalType": "uint256",
                    "name": "amountOfTokens",
                    "type": "uint256"
                }
            ],
            "name": "LogCollectTokens",
            "type": "event"
        },
        {
            "anonymous": false,
            "inputs": [
                {
                    "indexed": false,
                    "internalType": "address",
                    "name": "from",
                    "type": "address"
                },
                {
                    "indexed": false,
                    "internalType": "uint256",
                    "name": "numberOfTokensToRedeem",
                    "type": "uint256"
                }
            ],
            "name": "LogRedeemTokens",
            "type": "event"
        },
        {
            "anonymous": false,
            "inputs": [
                {
                    "indexed": false,
                    "internalType": "uint256",
                    "name": "transactionCount",
                    "type": "uint256"
                }
            ],
            "name": "LogTransactionCounter",
            "type": "event"
        },
        {
            "anonymous": false,
            "inputs": [],
            "name": "Pause",
            "type": "event"
        },
        {
            "anonymous": false,
            "inputs": [],
            "name": "Unpause",
            "type": "event"
        },
        {
            "anonymous": false,
            "inputs": [],
            "name": "NotPausable",
            "type": "event"
        },
        {
            "anonymous": false,
            "inputs": [
                {
                    "indexed": true,
                    "internalType": "address",
                    "name": "account",
                    "type": "address"
                }
            ],
            "name": "CustomerAdded",
            "type": "event"
        },
        {
            "anonymous": false,
            "inputs": [
                {
                    "indexed": true,
                    "internalType": "address",
                    "name": "account",
                    "type": "address"
                }
            ],
            "name": "CustomerRemoved",
            "type": "event"
        },
        {
            "anonymous": false,
            "inputs": [
                {
                    "indexed": true,
                    "internalType": "address",
                    "name": "previousOwner",
                    "type": "address"
                },
                {
                    "indexed": true,
                    "internalType": "address",
                    "name": "newOwner",
                    "type": "address"
                }
            ],
            "name": "OwnershipTransferred",
            "type": "event"
        },
        {
            "anonymous": false,
            "inputs": [
                {
                    "indexed": true,
                    "internalType": "address",
                    "name": "account",
                    "type": "address"
                }
            ],
            "name": "MinterAdded",
            "type": "event"
        },
        {
            "anonymous": false,
            "inputs": [
                {
                    "indexed": true,
                    "internalType": "address",
                    "name": "account",
                    "type": "address"
                }
            ],
            "name": "MinterRemoved",
            "type": "event"
        },
        {
            "anonymous": false,
            "inputs": [
                {
                    "indexed": true,
                    "internalType": "address",
                    "name": "from",
                    "type": "address"
                },
                {
                    "indexed": true,
                    "internalType": "address",
                    "name": "to",
                    "type": "address"
                },
                {
                    "indexed": false,
                    "internalType": "uint256",
                    "name": "value",
                    "type": "uint256"
                }
            ],
            "name": "Transfer",
            "type": "event"
        },
        {
            "anonymous": false,
            "inputs": [
                {
                    "indexed": true,
                    "internalType": "address",
                    "name": "owner",
                    "type": "address"
                },
                {
                    "indexed": true,
                    "internalType": "address",
                    "name": "spender",
                    "type": "address"
                },
                {
                    "indexed": false,
                    "internalType": "uint256",
                    "name": "value",
                    "type": "uint256"
                }
            ],
            "name": "Approval",
            "type": "event"
        }
    ],
    "bytecode": "6080604052600a805461ffff19166101001790556000600c553480156200002557600080fd5b506040518060400160405280600d81526020017f476f6f644c696665546f6b656e000000000000000000000000000000000000008152506040518060400160405280600381526020017f474c54000000000000000000000000000000000000000000000000000000000081525060008260039080519060200190620000ac929190620004e8565b508151620000c2906004906020850190620004e8565b506005805460ff191660ff9290921691909117905550620000e590503362000183565b6001600755600880546001600160a01b0319163317908190556040516001600160a01b0391909116906000907f8be0079c531659141344cd1fd0a4f28419497f9722a3daafe3b4186f6b6457e0908290a36200014a336001600160e01b03620001d516565b600e80546001600160a01b031916339081179091556200017d9068022b1c8c1227a000006001600160e01b036200022716565b6200058d565b6200019e8160066200034260201b62001e171790919060201c565b6040516001600160a01b038216907f6ae172837ea30b801fbfcdd4108aa1d5bf8ff775444fd70256b44e6bf3dfc3f690600090a250565b620001f08160096200034260201b62001e171790919060201c565b6040516001600160a01b038216907fcd118a02bd36f224f6f1b93812f78d2bbc2c2dc1bc0f60c176e3b4fe09f1483f90600090a250565b6001600160a01b0382166200029d57604080517f08c379a000000000000000000000000000000000000000000000000000000000815260206004820152601f60248201527f45524332303a206d696e7420746f20746865207a65726f206164647265737300604482015290519081900360640190fd5b620002b981600254620003e960201b620018261790919060201c565b6002556001600160a01b03821660009081526020818152604090912054620002ec91839062001826620003e9821b17901c565b6001600160a01b0383166000818152602081815260408083209490945583518581529351929391927fddf252ad1be2c89b69c2b068fc378daa952ba7f163c4a11628f55a4df523b3ef9281900390910190a35050565b6200035782826001600160e01b036200046516565b15620003c457604080517f08c379a000000000000000000000000000000000000000000000000000000000815260206004820152601f60248201527f526f6c65733a206163636f756e7420616c72656164792068617320726f6c6500604482015290519081900360640190fd5b6001600160a01b0316600090815260209190915260409020805460ff19166001179055565b6000828201838110156200045e57604080517f08c379a000000000000000000000000000000000000000000000000000000000815260206004820152601b60248201527f536166654d6174683a206164646974696f6e206f766572666c6f770000000000604482015290519081900360640190fd5b9392505050565b60006001600160a01b038216620004c8576040517f08c379a00000000000000000000000000000000000000000000000000000000081526004018080602001828103825260228152602001806200275b6022913960400191505060405180910390fd5b506001600160a01b03166000908152602091909152604090205460ff1690565b828054600181600116156101000203166002900490600052602060002090601f016020900481019282601f106200052b57805160ff19168380011785556200055b565b828001600101855582156200055b579182015b828111156200055b5782518255916020019190600101906200053e565b50620005699291506200056d565b5090565b6200058a91905b8082111562000569576000815560010162000574565b90565b6121be806200059d6000396000f3fe608060405234801561001057600080fd5b506004361061021c5760003560e01c80638456cb5911610125578063aa271e1a116100ad578063d55baa6a1161007c578063d55baa6a146105b8578063dad7f110146105d5578063dd62ed3e14610601578063e09576f01461062f578063f2fde38b1461064c5761021c565b8063aa271e1a1461055c578063ac98e6db14610582578063ad973d741461058a578063d4806deb146105b05761021c565b8063983b2d56116100f4578063983b2d56146104b957806398650275146104df578063a457c2d7146104e7578063a6196dd414610513578063a9059cbb146105305761021c565b80638456cb591461047d5780638da5cb5b146104855780638f32d59b146104a957806395d89b41146104b15761021c565b806339509351116101a85780634be8b05e116101775780634be8b05e1461042257806353d1f1bb1461042a5780635c975abb1461044757806370a082311461044f578063715018a6146104755761021c565b806339509351146103b85780633eaaf86b146103e45780633f4ba83a146103ec57806340c10f19146103f65761021c565b806323b872dd116101ef57806323b872dd1461032e57806328fd5e83146103645780632dd1b86b1461038a578063313ce56714610392578063323be1c5146103b05761021c565b806306fdde0314610221578063095ea7b31461029e57806318160ddd146102de578063237f4b66146102f8575b600080fd5b610229610672565b6040805160208082528351818301528351919283929083019185019080838360005b8381101561026357818101518382015260200161024b565b50505050905090810190601f1680156102905780820380516001836020036101000a031916815260200191505b509250505060405180910390f35b6102ca600480360360408110156102b457600080fd5b506001600160a01b038135169060200135610709565b604080519115158252519081900360200190f35b6102e661071f565b60408051918252519081900360200190f35b6102ca6004803603606081101561030e57600080fd5b506001600160a01b03813581169160208101359091169060400135610725565b6102ca6004803603606081101561034457600080fd5b506001600160a01b038135811691602081013590911690604001356109d2565b6102ca6004803603602081101561037a57600080fd5b50356001600160a01b03166109fa565b6102e6610a13565b61039a610a19565b6040805160ff9092168252519081900360200190f35b6102ca610a22565b6102ca600480360360408110156103ce57600080fd5b506001600160a01b038135169060200135610a30565b6102e6610a71565b6103f4610a77565b005b6102ca6004803603604081101561040c57600080fd5b506001600160a01b038135169060200135610b16565b6103f4610b66565b6102e66004803603602081101561044057600080fd5b5035610be3565b6102ca610d1a565b6102e66004803603602081101561046557600080fd5b50356001600160a01b0316610d23565b6103f4610d3e565b6103f4610dcf565b61048d610e78565b604080516001600160a01b039092168252519081900360200190f35b6102ca610e87565b610229610e98565b6103f4600480360360208110156104cf57600080fd5b50356001600160a01b0316610ef9565b6103f4610f49565b6102ca600480360360408110156104fd57600080fd5b506001600160a01b038135169060200135610f54565b61048d6004803603602081101561052957600080fd5b5035610f90565b6102ca6004803603604081101561054657600080fd5b506001600160a01b0381351690602001356110c7565b6102ca6004803603602081101561057257600080fd5b50356001600160a01b03166110d4565b6103f46110e7565b6103f4600480360360208110156105a057600080fd5b50356001600160a01b03166110f0565b61048d61113d565b61048d600480360360208110156105ce57600080fd5b503561114c565b6102ca600480360360408110156105eb57600080fd5b506001600160a01b038135169060200135611281565b6102e66004803603604081101561061757600080fd5b506001600160a01b0381358116916020013516611587565b6102296004803603602081101561064557600080fd5b50356115b2565b6103f46004803603602081101561066257600080fd5b50356001600160a01b03166116ea565b60038054604080516020601f60026000196101006001881615020190951694909404938401819004810282018101909252828152606093909290918301828280156106fe5780601f106106d3576101008083540402835291602001916106fe565b820191906000526020600020905b8154815290600101906020018083116106e157829003601f168201915b505050505090505b90565b600061071633848461173a565b50600192915050565b60025490565b600a5460009060ff161561073857600080fd5b83828061074483610d23565b101561074f57600080fd5b604080516001600160a01b0380891682528716602082015280820186905290517f495cf179de8b6692c201bee70355bebfcd4bb7a56c9f849f0a4d54fa065119a19181900360600190a16000600c541180156107ae5750610100600c54105b6107e95760405162461bcd60e51b815260040180806020018281038252603081526020018061215a6030913960400191505060405180910390fd5b600c546107fd90600163ffffffff61182616565b600c55610808611eff565b600c546000908152600f6020908152604091829020825160808101845281546001600160a01b039081168252600180840154909116828501526002808401548387015260038401805487516101009482161594909402600019011691909104601f8101869004860283018601909652858252919492936060860193919291908301828280156108d85780601f106108ad576101008083540402835291602001916108d8565b820191906000526020600020905b8154815290600101906020018083116108bb57829003601f168201915b505050919092525050506001600160a01b038881168252878116602080840191825260408085018a815281518083018352600a81526921b7b63632b1ba34b7b760b11b8185015260608701908152600c546000908152600f855292909220865181546001600160a01b03199081169188169190911782559451600182018054909616961695909517909355915160028401559051805193945084936109839260038501920190611f25565b5050600c5460408051918252517f5e4b2f1fdf4c1d18a8745f5658bc9e6a9103ffff895b8d6ae17b9b667201621892509081900360200190a16109c78787876109d2565b979650505050505050565b600a5460009060ff16156109e557600080fd5b6109f0848484611887565b5060019392505050565b6000610a0d60098363ffffffff6119c916565b92915050565b600c5490565b60055460ff1690565b600a54610100900460ff1681565b3360008181526001602090815260408083206001600160a01b03871684529091528120549091610716918590610a6c908663ffffffff61182616565b61173a565b600b5481565b610a7f610e87565b610abe576040805162461bcd60e51b815260206004820181905260248201526000805160206120ae833981519152604482015290519081900360640190fd5b600a5460ff16610acd57600080fd5b600a5460ff161515600114610ae157600080fd5b600a805460ff191690556040517f7805862f689e2f13df9f062ff482ad3ad112aca9e0847911ed832e158c525b3390600090a1565b6000610b21336110d4565b610b5c5760405162461bcd60e51b815260040180806020018281038252603081526020018061205d6030913960400191505060405180910390fd5b6107168383611a30565b610b6e610e87565b610bad576040805162461bcd60e51b815260206004820181905260248201526000805160206120ae833981519152604482015290519081900360640190fd5b600a805461ffff191690556040517faff39f66825d4448497d384dee3f4a3adf00a622960add00806503ae4ccee01c90600090a1565b60008082118015610bf5575061010082105b610c305760405162461bcd60e51b815260040180806020018281038252603081526020018061215a6030913960400191505060405180910390fd5b610c38611eff565b6000838152600f6020908152604091829020825160808101845281546001600160a01b039081168252600180840154909116828501526002808401548387015260038401805487516101009482161594909402600019011691909104601f810186900486028301860190965285825291949293606086019391929190830182828015610d055780601f10610cda57610100808354040283529160200191610d05565b820191906000526020600020905b815481529060010190602001808311610ce857829003601f168201915b50505091909252505050604001519392505050565b600a5460ff1681565b6001600160a01b031660009081526020819052604090205490565b610d46610e87565b610d85576040805162461bcd60e51b815260206004820181905260248201526000805160206120ae833981519152604482015290519081900360640190fd5b6008546040516000916001600160a01b0316907f8be0079c531659141344cd1fd0a4f28419497f9722a3daafe3b4186f6b6457e0908390a3600880546001600160a01b0319169055565b610dd7610e87565b610e16576040805162461bcd60e51b815260206004820181905260248201526000805160206120ae833981519152604482015290519081900360640190fd5b600a5460ff1615610e2657600080fd5b600a5460ff610100909104161515600114610e4057600080fd5b600a805460ff191660011790556040517f6985a02210a168e66602d3235cb6db0e70f92b3ba4d376a33c0f3d9434bff62590600090a1565b6008546001600160a01b031690565b6008546001600160a01b0316331490565b60048054604080516020601f60026000196101006001881615020190951694909404938401819004810282018101909252828152606093909290918301828280156106fe5780601f106106d3576101008083540402835291602001916106fe565b610f02336110d4565b610f3d5760405162461bcd60e51b815260040180806020018281038252603081526020018061205d6030913960400191505060405180910390fd5b610f4681611b20565b50565b610f5233611b68565b565b3360008181526001602090815260408083206001600160a01b03871684529091528120549091610716918590610a6c908663ffffffff611bb016565b60008082118015610fa2575061010082105b610fdd5760405162461bcd60e51b815260040180806020018281038252603081526020018061215a6030913960400191505060405180910390fd5b610fe5611eff565b6000838152600f6020908152604091829020825160808101845281546001600160a01b039081168252600180840154909116828501526002808401548387015260038401805487516101009482161594909402600019011691909104601f8101869004860283018601909652858252919492936060860193919291908301828280156110b25780601f10611087576101008083540402835291602001916110b2565b820191906000526020600020905b81548152906001019060200180831161109557829003601f168201915b50505091909252505050602001519392505050565b6000610716338484611887565b6000610a0d60068363ffffffff6119c916565b610f5233611c0d565b6110f9336109fa565b6111345760405162461bcd60e51b8152600401808060200182810382526034815260200180611fe16034913960400191505060405180910390fd5b610f4681611c55565b600e546001600160a01b031690565b6000808211801561115e575061010082105b6111995760405162461bcd60e51b815260040180806020018281038252603081526020018061215a6030913960400191505060405180910390fd5b6111a1611eff565b6000838152600f6020908152604091829020825160808101845281546001600160a01b039081168252600180840154909116828501526002808401548387015260038401805487516101009482161594909402600019011691909104601f81018690048602830186019096528582529194929360608601939192919083018282801561126e5780601f106112435761010080835404028352916020019161126e565b820191906000526020600020905b81548152906001019060200180831161125157829003601f168201915b5050509190925250509051949350505050565b600a5460009060ff161561129457600080fd5b60078054600101908190558383806112ab83610d23565b10156112b657600080fd5b604080516001600160a01b03881681526020810187905281517ff76fdfc7a4a006b652d723f0f84355b4a8113cbf80af27a61b0f8456d3c2eef1929181900390910190a16000600c5411801561130f5750610100600c54105b61134a5760405162461bcd60e51b815260040180806020018281038252603081526020018061215a6030913960400191505060405180910390fd5b600c5461135e90600163ffffffff61182616565b600c55611369611eff565b600c546000908152600f6020908152604091829020825160808101845281546001600160a01b039081168252600180840154909116828501526002808401548387015260038401805487516101009482161594909402600019011691909104601f8101869004860283018601909652858252919492936060860193919291908301828280156114395780601f1061140e57610100808354040283529160200191611439565b820191906000526020600020905b81548152906001019060200180831161141c57829003601f168201915b505050919092525050506001600160a01b0388811682526000602080840182815260408086018c815281518083018352600a8152692932b232b6b83a34b7b760b11b8186015260608801908152600c548652600f855291909420865181546001600160a01b03199081169188169190911782559251600182018054909416961695909517909155915160028401559051805193945084936114e09260038501920190611f25565b509050506114ee8787611c9d565b600c5460408051918252517f5e4b2f1fdf4c1d18a8745f5658bc9e6a9103ffff895b8d6ae17b9b66720162189181900360200190a1600194505050506007548114611580576040805162461bcd60e51b815260206004820152601f60248201527f5265656e7472616e637947756172643a207265656e7472616e742063616c6c00604482015290519081900360640190fd5b5092915050565b6001600160a01b03918216600090815260016020908152604080832093909416825291909152205490565b60606000821180156115c5575061010082105b6116005760405162461bcd60e51b815260040180806020018281038252603081526020018061215a6030913960400191505060405180910390fd5b611608611eff565b6000838152600f6020908152604091829020825160808101845281546001600160a01b039081168252600180840154909116828501526002808401548387015260038401805487516101009482161594909402600019011691909104601f8101869004860283018601909652858252919492936060860193919291908301828280156116d55780601f106116aa576101008083540402835291602001916116d5565b820191906000526020600020905b8154815290600101906020018083116116b857829003601f168201915b50505091909252505050606001519392505050565b6116f2610e87565b611731576040805162461bcd60e51b815260206004820181905260248201526000805160206120ae833981519152604482015290519081900360640190fd5b610f4681611d76565b6001600160a01b03831661177f5760405162461bcd60e51b81526004018080602001828103825260248152602001806121366024913960400191505060405180910390fd5b6001600160a01b0382166117c45760405162461bcd60e51b815260040180806020018281038252602281526020018061203b6022913960400191505060405180910390fd5b6001600160a01b03808416600081815260016020908152604080832094871680845294825291829020859055815185815291517f8c5be1e5ebec7d5bd14f71427d1e84f3dd0314c0f7b2291e5b200ac8c7c3b9259281900390910190a3505050565b600082820183811015611880576040805162461bcd60e51b815260206004820152601b60248201527f536166654d6174683a206164646974696f6e206f766572666c6f770000000000604482015290519081900360640190fd5b9392505050565b6001600160a01b0383166118cc5760405162461bcd60e51b81526004018080602001828103825260258152602001806121116025913960400191505060405180910390fd5b6001600160a01b0382166119115760405162461bcd60e51b8152600401808060200182810382526023815260200180611fbe6023913960400191505060405180910390fd5b6001600160a01b03831660009081526020819052604090205461193a908263ffffffff611bb016565b6001600160a01b03808516600090815260208190526040808220939093559084168152205461196f908263ffffffff61182616565b6001600160a01b038084166000818152602081815260409182902094909455805185815290519193928716927fddf252ad1be2c89b69c2b068fc378daa952ba7f163c4a11628f55a4df523b3ef92918290030190a3505050565b60006001600160a01b038216611a105760405162461bcd60e51b81526004018080602001828103825260228152602001806120ce6022913960400191505060405180910390fd5b506001600160a01b03166000908152602091909152604090205460ff1690565b6001600160a01b038216611a8b576040805162461bcd60e51b815260206004820152601f60248201527f45524332303a206d696e7420746f20746865207a65726f206164647265737300604482015290519081900360640190fd5b600254611a9e908263ffffffff61182616565b6002556001600160a01b038216600090815260208190526040902054611aca908263ffffffff61182616565b6001600160a01b0383166000818152602081815260408083209490945583518581529351929391927fddf252ad1be2c89b69c2b068fc378daa952ba7f163c4a11628f55a4df523b3ef9281900390910190a35050565b611b3160068263ffffffff611e1716565b6040516001600160a01b038216907f6ae172837ea30b801fbfcdd4108aa1d5bf8ff775444fd70256b44e6bf3dfc3f690600090a250565b611b7960068263ffffffff611e9816565b6040516001600160a01b038216907fe94479a9f7e1952cc78f2d6baab678adc1b772d936c6583def489e524cb6669290600090a250565b600082821115611c07576040805162461bcd60e51b815260206004820152601e60248201527f536166654d6174683a207375627472616374696f6e206f766572666c6f770000604482015290519081900360640190fd5b50900390565b611c1e60098263ffffffff611e9816565b6040516001600160a01b038216907fb4c88a9c5cd906354abdd1cc29e4f94c6c4de90754fb80ce51e6a33417bc81b690600090a250565b611c6660098263ffffffff611e1716565b6040516001600160a01b038216907fcd118a02bd36f224f6f1b93812f78d2bbc2c2dc1bc0f60c176e3b4fe09f1483f90600090a250565b6001600160a01b038216611ce25760405162461bcd60e51b81526004018080602001828103825260218152602001806120f06021913960400191505060405180910390fd5b600254611cf5908263ffffffff611bb016565b6002556001600160a01b038216600090815260208190526040902054611d21908263ffffffff611bb016565b6001600160a01b038316600081815260208181526040808320949094558351858152935191937fddf252ad1be2c89b69c2b068fc378daa952ba7f163c4a11628f55a4df523b3ef929081900390910190a35050565b6001600160a01b038116611dbb5760405162461bcd60e51b81526004018080602001828103825260268152602001806120156026913960400191505060405180910390fd5b6008546040516001600160a01b038084169216907f8be0079c531659141344cd1fd0a4f28419497f9722a3daafe3b4186f6b6457e090600090a3600880546001600160a01b0319166001600160a01b0392909216919091179055565b611e2182826119c9565b15611e73576040805162461bcd60e51b815260206004820152601f60248201527f526f6c65733a206163636f756e7420616c72656164792068617320726f6c6500604482015290519081900360640190fd5b6001600160a01b0316600090815260209190915260409020805460ff19166001179055565b611ea282826119c9565b611edd5760405162461bcd60e51b815260040180806020018281038252602181526020018061208d6021913960400191505060405180910390fd5b6001600160a01b0316600090815260209190915260409020805460ff19169055565b604080516080810182526000808252602082018190529181019190915260608082015290565b828054600181600116156101000203166002900490600052602060002090601f016020900481019282601f10611f6657805160ff1916838001178555611f93565b82800160010185558215611f93579182015b82811115611f93578251825591602001919060010190611f78565b50611f9f929150611fa3565b5090565b61070691905b80821115611f9f5760008155600101611fa956fe45524332303a207472616e7366657220746f20746865207a65726f2061646472657373437573746f6d6572526f6c653a2063616c6c657220646f6573206e6f7420686176652074686520437573746f6d657220726f6c654f776e61626c653a206e6577206f776e657220697320746865207a65726f206164647265737345524332303a20617070726f766520746f20746865207a65726f20616464726573734d696e746572526f6c653a2063616c6c657220646f6573206e6f74206861766520746865204d696e74657220726f6c65526f6c65733a206163636f756e7420646f6573206e6f74206861766520726f6c654f776e61626c653a2063616c6c6572206973206e6f7420746865206f776e6572526f6c65733a206163636f756e7420697320746865207a65726f206164647265737345524332303a206275726e2066726f6d20746865207a65726f206164647265737345524332303a207472616e736665722066726f6d20746865207a65726f206164647265737345524332303a20617070726f76652066726f6d20746865207a65726f20616464726573736964206d757374206e6f74206265206c6f776572207468616e203020616e64206c6172676572207468616e203235352ea265627a7a72315820afaaf19a81ad26670e676860877f68a0b28de4e657118055ddbe917c405a1c9564736f6c634300050b0032526f6c65733a206163636f756e7420697320746865207a65726f2061646472657373",
    "sourcePath": "/home/markus/Ethereum/final-project/good-life-token/contracts/GoodLifeToken.sol",
    "compiler": {
        "name": "solc",
        "version": "0.5.11+commit.c082d0b4"
    },
    "functionHashes": {
        "_totalSupply()": "3eaaf86b",
        "addCustomer(address)": "ad973d74",
        "addMinter(address)": "983b2d56",
        "allowance(address,address)": "dd62ed3e",
        "approve(address,uint256)": "095ea7b3",
        "balanceOf(address)": "70a08231",
        "canPause()": "323be1c5",
        "collectTokens(address,address,uint256)": "237f4b66",
        "decimals()": "313ce567",
        "decreaseAllowance(address,uint256)": "a457c2d7",
        "getTransactionAmount(uint256)": "53d1f1bb",
        "getTransactionCounter()": "2dd1b86b",
        "getTransactionRecipientAddress(uint256)": "a6196dd4",
        "getTransactionSenderAddress(uint256)": "d55baa6a",
        "getTransactionType(uint256)": "e09576f0",
        "gltOwner()": "d4806deb",
        "increaseAllowance(address,uint256)": "39509351",
        "isCustomer(address)": "28fd5e83",
        "isMinter(address)": "aa271e1a",
        "isOwner()": "8f32d59b",
        "mint(address,uint256)": "40c10f19",
        "name()": "06fdde03",
        "notPausable()": "4be8b05e",
        "owner()": "8da5cb5b",
        "pause()": "8456cb59",
        "paused()": "5c975abb",
        "redeemTokens(address,uint256)": "dad7f110",
        "renounceCustomer()": "ac98e6db",
        "renounceMinter()": "98650275",
        "renounceOwnership()": "715018a6",
        "symbol()": "95d89b41",
        "totalSupply()": "18160ddd",
        "transfer(address,uint256)": "a9059cbb",
        "transferFrom(address,address,uint256)": "23b872dd",
        "transferOwnership(address)": "f2fde38b",
        "unpause()": "3f4ba83a"
    },
    "gasEstimates": {
        "creation": {
            "codeDepositCost": "1727600",
            "executionCost": "infinite",
            "totalCost": "infinite"
        },
        "external": {
            "_totalSupply()": "466",
            "addCustomer(address)": "infinite",
            "addMinter(address)": "infinite",
            "allowance(address,address)": "738",
            "approve(address,uint256)": "infinite",
            "balanceOf(address)": "656",
            "canPause()": "555",
            "collectTokens(address,address,uint256)": "infinite",
            "decimals()": "525",
            "decreaseAllowance(address,uint256)": "infinite",
            "getTransactionAmount(uint256)": "infinite",
            "getTransactionCounter()": "488",
            "getTransactionRecipientAddress(uint256)": "infinite",
            "getTransactionSenderAddress(uint256)": "infinite",
            "getTransactionType(uint256)": "infinite",
            "gltOwner()": "548",
            "increaseAllowance(address,uint256)": "infinite",
            "isCustomer(address)": "infinite",
            "isMinter(address)": "infinite",
            "isOwner()": "517",
            "mint(address,uint256)": "infinite",
            "name()": "infinite",
            "notPausable()": "infinite",
            "owner()": "505",
            "pause()": "infinite",
            "paused()": "499",
            "redeemTokens(address,uint256)": "infinite",
            "renounceCustomer()": "infinite",
            "renounceMinter()": "infinite",
            "renounceOwnership()": "infinite",
            "symbol()": "infinite",
            "totalSupply()": "489",
            "transfer(address,uint256)": "infinite",
            "transferFrom(address,address,uint256)": "infinite",
            "transferOwnership(address)": "infinite",
            "unpause()": "infinite"
        }
    }
}