{
    "contractName": "ShoppingBasket",
    "abi": [
        {
            "constant": true,
            "inputs": [
                {
                    "internalType": "uint256",
                    "name": "_id",
                    "type": "uint256"
                }
            ],
            "name": "getItemAttributes",
            "outputs": [
                {
                    "internalType": "uint256",
                    "name": "id",
                    "type": "uint256"
                },
                {
                    "internalType": "string",
                    "name": "name",
                    "type": "string"
                },
                {
                    "internalType": "uint256",
                    "name": "quantity",
                    "type": "uint256"
                },
                {
                    "internalType": "uint256",
                    "name": "price",
                    "type": "uint256"
                },
                {
                    "internalType": "uint256",
                    "name": "ecoFootprint",
                    "type": "uint256"
                },
                {
                    "internalType": "string",
                    "name": "imgRef",
                    "type": "string"
                }
            ],
            "payable": false,
            "stateMutability": "view",
            "type": "function"
        },
        {
            "constant": false,
            "inputs": [
                {
                    "internalType": "uint256",
                    "name": "_id",
                    "type": "uint256"
                },
                {
                    "internalType": "string",
                    "name": "_name",
                    "type": "string"
                },
                {
                    "internalType": "uint256",
                    "name": "_quantity",
                    "type": "uint256"
                },
                {
                    "internalType": "uint256",
                    "name": "_price",
                    "type": "uint256"
                },
                {
                    "internalType": "uint256",
                    "name": "_ecoFootprint",
                    "type": "uint256"
                },
                {
                    "internalType": "string",
                    "name": "_imgRef",
                    "type": "string"
                }
            ],
            "name": "addItem",
            "outputs": [
                {
                    "internalType": "uint256",
                    "name": "",
                    "type": "uint256"
                }
            ],
            "payable": false,
            "stateMutability": "nonpayable",
            "type": "function"
        },
        {
            "constant": false,
            "inputs": [],
            "name": "purchaseItems",
            "outputs": [
                {
                    "internalType": "uint256",
                    "name": "",
                    "type": "uint256"
                }
            ],
            "payable": false,
            "stateMutability": "nonpayable",
            "type": "function"
        },
        {
            "constant": true,
            "inputs": [
                {
                    "internalType": "uint256",
                    "name": "",
                    "type": "uint256"
                }
            ],
            "name": "listOfBasketItemIds",
            "outputs": [
                {
                    "internalType": "uint256",
                    "name": "",
                    "type": "uint256"
                }
            ],
            "payable": false,
            "stateMutability": "view",
            "type": "function"
        },
        {
            "constant": true,
            "inputs": [],
            "name": "getListOfBasketItemIds",
            "outputs": [
                {
                    "internalType": "uint256[64]",
                    "name": "",
                    "type": "uint256[64]"
                }
            ],
            "payable": false,
            "stateMutability": "view",
            "type": "function"
        },
        {
            "inputs": [],
            "payable": false,
            "stateMutability": "nonpayable",
            "type": "constructor"
        },
        {
            "anonymous": false,
            "inputs": [
                {
                    "indexed": false,
                    "internalType": "uint256",
                    "name": "id",
                    "type": "uint256"
                }
            ],
            "name": "LogForAddItemToBasket",
            "type": "event"
        },
        {
            "anonymous": false,
            "inputs": [
                {
                    "indexed": false,
                    "internalType": "uint256",
                    "name": "tokenAmount",
                    "type": "uint256"
                }
            ],
            "name": "LogSold",
            "type": "event"
        }
    ],
    "bytecode": "608060405260006001556064600255600a600355600060455534801561002457600080fd5b50600080546001600160a01b031916331790556109b5806100466000396000f3fe608060405234801561001057600080fd5b50600436106100575760003560e01c80636995795b1461005c5780636b5d4ab114610173578063d34b8a7a146102cb578063e376aa27146102d3578063f2dc6ff9146102f0575b600080fd5b6100796004803603602081101561007257600080fd5b5035610331565b604051808781526020018060200186815260200185815260200184815260200180602001838103835288818151815260200191508051906020019080838360005b838110156100d25781810151838201526020016100ba565b50505050905090810190601f1680156100ff5780820380516001836020036101000a031916815260200191505b50838103825284518152845160209182019186019080838360005b8381101561013257818101518382015260200161011a565b50505050905090810190601f16801561015f5780820380516001836020036101000a031916815260200191505b509850505050505050505060405180910390f35b6102b9600480360360c081101561018957600080fd5b813591908101906040810160208201356401000000008111156101ab57600080fd5b8201836020820111156101bd57600080fd5b803590602001918460018302840111640100000000831117156101df57600080fd5b91908080601f016020809104026020016040519081016040528093929190818152602001838380828437600092019190915250929584359560208601359560408101359550919350915060808101906060013564010000000081111561024457600080fd5b82018360208201111561025657600080fd5b8035906020019184600183028401116401000000008311171561027857600080fd5b91908080601f0160208091040260200160405190810160405280939291908181526020018383808284376000920191909152509295506104fb945050505050565b60408051918252519081900360200190f35b6102b9610699565b6102b9600480360360208110156102e957600080fd5b50356106f4565b6102f8610708565b604051808261080080838360005b8381101561031e578181015183820152602001610306565b5050505090500191505060405180910390f35b600060606000806000606060008711801561034c5750602087105b6103875760405162461bcd60e51b815260040180806020018281038252602f815260200180610931602f913960400191505060405180910390fd5b869550600460008881526020019081526020016000206001018054600181600116156101000203166002900480601f0160208091040260200160405190810160405280929190818152602001828054600181600116156101000203166002900480156104345780601f1061040957610100808354040283529160200191610434565b820191906000526020600020905b81548152906001019060200180831161041757829003601f168201915b50505060008a8152600460208181526040928390206002808201546003830154948301546005909301805487516001821615610100026000190190911693909304601f8101869004860284018601909752868352989d509b509299509750909493509091508301828280156104ea5780601f106104bf576101008083540402835291602001916104ea565b820191906000526020600020905b8154815290600101906020018083116104cd57829003601f168201915b509394505050505091939550919395565b6000808711801561050c5750602087105b6105475760405162461bcd60e51b815260040180806020018281038252602f815260200180610931602f913960400191505060405180910390fd5b6040805188815290517f3d9698fc75d82d7226c22f11bbfbb06659a3b3381cf9efeb362cd0aa966bd3ff9181900360200190a16040805160c0810182528881526020808201898152828401899052606083018890526080830187905260a0830186905260008b8152600483529390932082518155925180519293926105d29260018501920190610867565b5060408201516002820155606082015160038201556080820151600482015560a0820151805161060c916005840191602090910190610867565b5090505061065d61064e600254610642600354610642886106368c8c61074190919063ffffffff16565b9063ffffffff61074116565b9063ffffffff6107a316565b6001549063ffffffff61080d16565b60015560455487906005906040811061067257fe5b015560455461068890600163ffffffff61080d16565b604555506001549695505050505050565b60015460408051918252516000917fe64ca8c671e48636f85f3008c1dd538e36bfa74fb6f2790b56b72fcc33b879ef919081900360200190a1600180546000918290556045829055906106ee906005906108e5565b90505b90565b6005816040811061070157fe5b0154905081565b6107106108f7565b604080516108008101808352909160059182845b815481526020019060010190808311610724575050505050905090565b6000826107505750600061079d565b8282028284828161075d57fe5b041461079a5760405162461bcd60e51b81526004018080602001828103825260218152602001806109606021913960400191505060405180910390fd5b90505b92915050565b60008082116107f9576040805162461bcd60e51b815260206004820152601a60248201527f536166654d6174683a206469766973696f6e206279207a65726f000000000000604482015290519081900360640190fd5b600082848161080457fe5b04949350505050565b60008282018381101561079a576040805162461bcd60e51b815260206004820152601b60248201527f536166654d6174683a206164646974696f6e206f766572666c6f770000000000604482015290519081900360640190fd5b828054600181600116156101000203166002900490600052602060002090601f016020900481019282601f106108a857805160ff19168380011785556108d5565b828001600101855582156108d5579182015b828111156108d55782518255916020019190600101906108ba565b506108e1929150610916565b5090565b506108f4906040810190610916565b50565b6040518061080001604052806040906020820280388339509192915050565b6106f191905b808211156108e1576000815560010161091c56fe6964206d757374206e6f74206265206c6f776572207468616e203020616e64206c6172676572207468616e2033322e536166654d6174683a206d756c7469706c69636174696f6e206f766572666c6f77a265627a7a72315820e19ff7a917e31a224a228868da7cadc5ebbf49caefe151425f64b7f2242fd59164736f6c634300050b0032",
    "sourcePath": "/home/markus/Ethereum/final-project/good-life-token/contracts/ShoppingBasket.sol",
    "compiler": {
        "name": "solc",
        "version": "0.5.11+commit.c082d0b4"
    },
    "functionHashes": {
        "addItem(uint256,string,uint256,uint256,uint256,string)": "6b5d4ab1",
        "getItemAttributes(uint256)": "6995795b",
        "getListOfBasketItemIds()": "f2dc6ff9",
        "listOfBasketItemIds(uint256)": "e376aa27",
        "purchaseItems()": "d34b8a7a"
    },
    "gasEstimates": {
        "creation": {
            "codeDepositCost": "497000",
            "executionCost": "70789",
            "totalCost": "567789"
        },
        "external": {
            "addItem(uint256,string,uint256,uint256,uint256,string)": "infinite",
            "getItemAttributes(uint256)": "infinite",
            "getListOfBasketItemIds()": "infinite",
            "listOfBasketItemIds(uint256)": "518",
            "purchaseItems()": "infinite"
        }
    }
}