{
  "contractName": "CustomerRoleMock",
  "abi": [
    {
      "constant": true,
      "inputs": [
        {
          "name": "account",
          "type": "address"
        }
      ],
      "name": "isCustomer",
      "outputs": [
        {
          "name": "",
          "type": "bool"
        }
      ],
      "payable": false,
      "stateMutability": "view",
      "type": "function"
    },
    {
      "constant": false,
      "inputs": [],
      "name": "renounceCustomer",
      "outputs": [],
      "payable": false,
      "stateMutability": "nonpayable",
      "type": "function"
    },
    {
      "inputs": [],
      "payable": false,
      "stateMutability": "nonpayable",
      "type": "constructor"
    },
    {
      "anonymous": false,
      "inputs": [
        {
          "indexed": true,
          "name": "account",
          "type": "address"
        }
      ],
      "name": "CustomerAdded",
      "type": "event"
    },
    {
      "anonymous": false,
      "inputs": [
        {
          "indexed": true,
          "name": "account",
          "type": "address"
        }
      ],
      "name": "CustomerRemoved",
      "type": "event"
    },
    {
      "constant": false,
      "inputs": [
        {
          "name": "account",
          "type": "address"
        }
      ],
      "name": "addCustomer",
      "outputs": [],
      "payable": false,
      "stateMutability": "nonpayable",
      "type": "function"
    },
    {
      "constant": false,
      "inputs": [
        {
          "name": "account",
          "type": "address"
        }
      ],
      "name": "removeCustomer",
      "outputs": [],
      "payable": false,
      "stateMutability": "nonpayable",
      "type": "function"
    },
    {
      "constant": true,
      "inputs": [],
      "name": "onlyCustomerMock",
      "outputs": [],
      "payable": false,
      "stateMutability": "view",
      "type": "function"
    }
  ],
  "bytecode": "0x608060405234801561001057600080fd5b506100203361003860201b60201c565b6100333361003860201b61033c1760201c565b610255565b61005081600061009660201b6103f01790919060201c565b8073ffffffffffffffffffffffffffffffffffffffff167fcd118a02bd36f224f6f1b93812f78d2bbc2c2dc1bc0f60c176e3b4fe09f1483f60405160405180910390a250565b6100a6828261017760201b60201c565b15610119576040517f08c379a000000000000000000000000000000000000000000000000000000000815260040180806020018281038252601f8152602001807f526f6c65733a206163636f756e7420616c72656164792068617320726f6c650081525060200191505060405180910390fd5b60018260000160008373ffffffffffffffffffffffffffffffffffffffff1673ffffffffffffffffffffffffffffffffffffffff16815260200190815260200160002060006101000a81548160ff0219169083151502179055505050565b60008073ffffffffffffffffffffffffffffffffffffffff168273ffffffffffffffffffffffffffffffffffffffff1614156101fe576040517f08c379a000000000000000000000000000000000000000000000000000000000815260040180806020018281038252602281526020018061088f6022913960400191505060405180910390fd5b8260000160008373ffffffffffffffffffffffffffffffffffffffff1673ffffffffffffffffffffffffffffffffffffffff16815260200190815260200160002060009054906101000a900460ff16905092915050565b61062b806102646000396000f3fe608060405234801561001057600080fd5b50600436106100575760003560e01c806328fd5e831461005c57806382388a3a146100b85780638eb06ccf146100c2578063ac98e6db14610106578063ad973d7414610110575b600080fd5b61009e6004803603602081101561007257600080fd5b81019080803573ffffffffffffffffffffffffffffffffffffffff169060200190929190505050610154565b604051808215151515815260200191505060405180910390f35b6100c0610171565b005b610104600480360360208110156100d857600080fd5b81019080803573ffffffffffffffffffffffffffffffffffffffff1690602001909291905050506101d1565b005b61010e6101dd565b005b6101526004803603602081101561012657600080fd5b81019080803573ffffffffffffffffffffffffffffffffffffffff1690602001909291905050506101e8565b005b600061016a82600061025290919063ffffffff16565b9050919050565b61017a33610154565b6101cf576040517f08c379a00000000000000000000000000000000000000000000000000000000081526004018080602001828103825260348152602001806105896034913960400191505060405180910390fd5b565b6101da81610330565b50565b6101e633610330565b565b6101f133610154565b610246576040517f08c379a00000000000000000000000000000000000000000000000000000000081526004018080602001828103825260348152602001806105896034913960400191505060405180910390fd5b61024f8161033c565b50565b60008073ffffffffffffffffffffffffffffffffffffffff168273ffffffffffffffffffffffffffffffffffffffff1614156102d9576040517f08c379a00000000000000000000000000000000000000000000000000000000081526004018080602001828103825260228152602001806105de6022913960400191505060405180910390fd5b8260000160008373ffffffffffffffffffffffffffffffffffffffff1673ffffffffffffffffffffffffffffffffffffffff16815260200190815260200160002060009054906101000a900460ff16905092915050565b61033981610396565b50565b6103508160006103f090919063ffffffff16565b8073ffffffffffffffffffffffffffffffffffffffff167fcd118a02bd36f224f6f1b93812f78d2bbc2c2dc1bc0f60c176e3b4fe09f1483f60405160405180910390a250565b6103aa8160006104cb90919063ffffffff16565b8073ffffffffffffffffffffffffffffffffffffffff167fb4c88a9c5cd906354abdd1cc29e4f94c6c4de90754fb80ce51e6a33417bc81b660405160405180910390a250565b6103fa8282610252565b1561046d576040517f08c379a000000000000000000000000000000000000000000000000000000000815260040180806020018281038252601f8152602001807f526f6c65733a206163636f756e7420616c72656164792068617320726f6c650081525060200191505060405180910390fd5b60018260000160008373ffffffffffffffffffffffffffffffffffffffff1673ffffffffffffffffffffffffffffffffffffffff16815260200190815260200160002060006101000a81548160ff0219169083151502179055505050565b6104d58282610252565b61052a576040517f08c379a00000000000000000000000000000000000000000000000000000000081526004018080602001828103825260218152602001806105bd6021913960400191505060405180910390fd5b60008260000160008373ffffffffffffffffffffffffffffffffffffffff1673ffffffffffffffffffffffffffffffffffffffff16815260200190815260200160002060006101000a81548160ff021916908315150217905550505056fe437573746f6d6572526f6c653a2063616c6c657220646f6573206e6f7420686176652074686520437573746f6d657220726f6c65526f6c65733a206163636f756e7420646f6573206e6f74206861766520726f6c65526f6c65733a206163636f756e7420697320746865207a65726f2061646472657373a165627a7a723058202c7b46ab30fbff5482f1aaf0a0ea4e44df54b1c305f097ae930637a063950f5b0029526f6c65733a206163636f756e7420697320746865207a65726f2061646472657373",
  "source": "// The MIT License(MIT)\n\n// Copyright(c) 2016 - 2019 zOS Global Limited\n\n// Permission is hereby granted, free of charge, to any person obtaining\n// a copy of this software and associated documentation files(the\n// \"Software\"), to deal in the Software without restriction, including\n// without limitation the rights to use, copy, modify, merge, publish,\n//   distribute, sublicense, and / or sell copies of the Software, and to\n// permit persons to whom the Software is furnished to do so, subject to\n// the following conditions:\n\n// The above copyright notice and this permission notice shall be included\n//   in all copies or substantial portions of the Software.\n\n// THE SOFTWARE IS PROVIDED \"AS IS\", WITHOUT WARRANTY OF ANY KIND, EXPRESS\n// OR IMPLIED, INCLUDING BUT NOT LIMITED TO THE WARRANTIES OF\n// MERCHANTABILITY, FITNESS FOR A PARTICULAR PURPOSE AND NONINFRINGEMENT.\n// IN NO EVENT SHALL THE AUTHORS OR COPYRIGHT HOLDERS BE LIABLE FOR ANY\n// CLAIM, DAMAGES OR OTHER LIABILITY, WHETHER IN AN ACTION OF CONTRACT,\n//   TORT OR OTHERWISE, ARISING FROM, OUT OF OR IN CONNECTION WITH THE\n// SOFTWARE OR THE USE OR OTHER DEALINGS IN THE SOFTWARE.\n\n// Based on OpenZeppelin's https://github.com/OpenZeppelin/openzeppelin-contracts/blob/master/contracts/mocks/MinterRoleMock.sol\n\npragma solidity ^0.5.0;\n\nimport \"../roles/CustomerRole.sol\";\n\ncontract CustomerRoleMock is CustomerRole {\n    constructor() public CustomerRole() {\n        super._addCustomer(msg.sender);\n    }\n\n    function addCustomer(address account) public onlyCustomer {\n        super._addCustomer(account);\n    }\n\n    function removeCustomer(address account) public {\n        _removeCustomer(account);\n    }\n\n    function onlyCustomerMock() public view onlyCustomer {\n        // solhint-disable-previous-line no-empty-blocks\n    }\n\n    // Causes a compilation error if super._removeCustomer is not internal\n    function _removeCustomer(address account) internal {\n        super._removeCustomer(account);\n    }\n}\n",
  "sourcePath": "/home/markus/Ethereum/final-project/good-life-token/contracts/mocks/CustomerRoleMock.sol",
  "compiler": {
    "name": "solc",
    "version": "0.5.8+commit.23d335f2.Emscripten.clang"
  },
  "schemaVersion": "3.0.11",
  "updatedAt": "2019-09-12T10:31:44.246Z",
  "devdoc": {
    "methods": {}
  },
  "userdoc": {
    "methods": {}
  }
}