{
  "contractName": "GLTMerchantSale",
  "abi": [
    {
      "constant": true,
      "inputs": [
        {
          "name": "account",
          "type": "address"
        }
      ],
      "name": "isMerchant",
      "outputs": [
        {
          "name": "",
          "type": "bool"
        }
      ],
      "payable": false,
      "stateMutability": "view",
      "type": "function"
    },
    {
      "constant": true,
      "inputs": [],
      "name": "rate",
      "outputs": [
        {
          "name": "",
          "type": "uint256"
        }
      ],
      "payable": false,
      "stateMutability": "view",
      "type": "function"
    },
    {
      "constant": false,
      "inputs": [],
      "name": "renounceMerchant",
      "outputs": [],
      "payable": false,
      "stateMutability": "nonpayable",
      "type": "function"
    },
    {
      "constant": true,
      "inputs": [],
      "name": "wallet",
      "outputs": [
        {
          "name": "",
          "type": "address"
        }
      ],
      "payable": false,
      "stateMutability": "view",
      "type": "function"
    },
    {
      "constant": false,
      "inputs": [],
      "name": "renounceOwnership",
      "outputs": [],
      "payable": false,
      "stateMutability": "nonpayable",
      "type": "function"
    },
    {
      "constant": true,
      "inputs": [],
      "name": "owner",
      "outputs": [
        {
          "name": "",
          "type": "address"
        }
      ],
      "payable": false,
      "stateMutability": "view",
      "type": "function"
    },
    {
      "constant": true,
      "inputs": [],
      "name": "isOwner",
      "outputs": [
        {
          "name": "",
          "type": "bool"
        }
      ],
      "payable": false,
      "stateMutability": "view",
      "type": "function"
    },
    {
      "constant": true,
      "inputs": [],
      "name": "price",
      "outputs": [
        {
          "name": "",
          "type": "address"
        }
      ],
      "payable": false,
      "stateMutability": "view",
      "type": "function"
    },
    {
      "constant": false,
      "inputs": [
        {
          "name": "account",
          "type": "address"
        }
      ],
      "name": "addMerchant",
      "outputs": [],
      "payable": false,
      "stateMutability": "nonpayable",
      "type": "function"
    },
    {
      "constant": false,
      "inputs": [
        {
          "name": "newOwner",
          "type": "address"
        }
      ],
      "name": "transferOwnership",
      "outputs": [],
      "payable": false,
      "stateMutability": "nonpayable",
      "type": "function"
    },
    {
      "constant": true,
      "inputs": [],
      "name": "token",
      "outputs": [
        {
          "name": "",
          "type": "address"
        }
      ],
      "payable": false,
      "stateMutability": "view",
      "type": "function"
    },
    {
      "inputs": [
        {
          "name": "rate",
          "type": "uint256"
        },
        {
          "name": "wallet",
          "type": "address"
        },
        {
          "name": "token",
          "type": "address"
        }
      ],
      "payable": false,
      "stateMutability": "nonpayable",
      "type": "constructor"
    },
    {
      "payable": true,
      "stateMutability": "payable",
      "type": "fallback"
    },
    {
      "anonymous": false,
      "inputs": [
        {
          "indexed": true,
          "name": "account",
          "type": "address"
        }
      ],
      "name": "MerchantAdded",
      "type": "event"
    },
    {
      "anonymous": false,
      "inputs": [
        {
          "indexed": true,
          "name": "account",
          "type": "address"
        }
      ],
      "name": "MerchantRemoved",
      "type": "event"
    },
    {
      "anonymous": false,
      "inputs": [
        {
          "indexed": true,
          "name": "previousOwner",
          "type": "address"
        },
        {
          "indexed": true,
          "name": "newOwner",
          "type": "address"
        }
      ],
      "name": "OwnershipTransferred",
      "type": "event"
    },
    {
      "anonymous": false,
      "inputs": [
        {
          "indexed": true,
          "name": "purchaser",
          "type": "address"
        },
        {
          "indexed": true,
          "name": "beneficiary",
          "type": "address"
        },
        {
          "indexed": false,
          "name": "value",
          "type": "uint256"
        },
        {
          "indexed": false,
          "name": "amount",
          "type": "uint256"
        }
      ],
      "name": "TokensPurchased",
      "type": "event"
    },
    {
      "constant": false,
      "inputs": [],
      "name": "toggleContractActive",
      "outputs": [],
      "payable": false,
      "stateMutability": "nonpayable",
      "type": "function"
    },
    {
      "constant": true,
      "inputs": [
        {
          "name": "amountInEUR",
          "type": "uint256"
        }
      ],
      "name": "getTokenAmount",
      "outputs": [
        {
          "name": "",
          "type": "uint256"
        }
      ],
      "payable": false,
      "stateMutability": "view",
      "type": "function"
    },
    {
      "constant": true,
      "inputs": [],
      "name": "weiRaised",
      "outputs": [
        {
          "name": "",
          "type": "uint256"
        }
      ],
      "payable": false,
      "stateMutability": "view",
      "type": "function"
    },
    {
      "constant": false,
      "inputs": [
        {
          "name": "beneficiary",
          "type": "address"
        },
        {
          "name": "amountInEUR",
          "type": "uint256"
        }
      ],
      "name": "buyTokens",
      "outputs": [],
      "payable": true,
      "stateMutability": "payable",
      "type": "function"
    },
    {
      "constant": false,
      "inputs": [
        {
          "name": "beneficiary",
          "type": "address"
        }
      ],
      "name": "buyTokens",
      "outputs": [],
      "payable": true,
      "stateMutability": "payable",
      "type": "function"
    },
    {
      "constant": false,
      "inputs": [],
      "name": "destroy",
      "outputs": [],
      "payable": false,
      "stateMutability": "nonpayable",
      "type": "function"
    },
    {
      "constant": false,
      "inputs": [
        {
          "name": "recipient",
          "type": "address"
        }
      ],
      "name": "destroyAndSend",
      "outputs": [],
      "payable": false,
      "stateMutability": "nonpayable",
      "type": "function"
    },
    {
      "constant": true,
      "inputs": [],
      "name": "glToken",
      "outputs": [
        {
          "name": "",
          "type": "address"
        }
      ],
      "payable": false,
      "stateMutability": "view",
      "type": "function"
    }
  ],
  "bytecode": "0x60806040526000600a60146101000a81548160ff0219169083151502179055503480156200002c57600080fd5b50604051606080620020c7833981018060405260608110156200004e57600080fd5b81019080805190602001909291908051906020019092919080519060200190929190505050828282600160008190555060008311620000f5576040517f08c379a00000000000000000000000000000000000000000000000000000000081526004018080602001828103825260148152602001807f43726f776473616c653a2072617465206973203000000000000000000000000081525060200191505060405180910390fd5b600073ffffffffffffffffffffffffffffffffffffffff168273ffffffffffffffffffffffffffffffffffffffff1614156200017d576040517f08c379a0000000000000000000000000000000000000000000000000000000008152600401808060200182810382526025815260200180620020a26025913960400191505060405180910390fd5b600073ffffffffffffffffffffffffffffffffffffffff168173ffffffffffffffffffffffffffffffffffffffff16141562000205576040517f08c379a00000000000000000000000000000000000000000000000000000000081526004018080602001828103825260248152602001806200205c6024913960400191505060405180910390fd5b8260038190555081600260006101000a81548173ffffffffffffffffffffffffffffffffffffffff021916908373ffffffffffffffffffffffffffffffffffffffff16021790555080600160006101000a81548173ffffffffffffffffffffffffffffffffffffffff021916908373ffffffffffffffffffffffffffffffffffffffff16021790555050505033600560006101000a81548173ffffffffffffffffffffffffffffffffffffffff021916908373ffffffffffffffffffffffffffffffffffffffff160217905550600560009054906101000a900473ffffffffffffffffffffffffffffffffffffffff1673ffffffffffffffffffffffffffffffffffffffff16600073ffffffffffffffffffffffffffffffffffffffff167f8be0079c531659141344cd1fd0a4f28419497f9722a3daafe3b4186f6b6457e060405160405180910390a36200036033620003fa60201b60201c565b82600881905550600060078190555033600960006101000a81548173ffffffffffffffffffffffffffffffffffffffff021916908373ffffffffffffffffffffffffffffffffffffffff16021790555080600a60006101000a81548173ffffffffffffffffffffffffffffffffffffffff021916908373ffffffffffffffffffffffffffffffffffffffff1602179055505050506200061f565b620004158160066200045b60201b6200183e1790919060201c565b8073ffffffffffffffffffffffffffffffffffffffff167fc197da77b28f3c45c06c05226a579905fd0692f6603bd04fa0ed262f79e9195860405160405180910390a250565b6200046d82826200053f60201b60201c565b15620004e1576040517f08c379a000000000000000000000000000000000000000000000000000000000815260040180806020018281038252601f8152602001807f526f6c65733a206163636f756e7420616c72656164792068617320726f6c650081525060200191505060405180910390fd5b60018260000160008373ffffffffffffffffffffffffffffffffffffffff1673ffffffffffffffffffffffffffffffffffffffff16815260200190815260200160002060006101000a81548160ff0219169083151502179055505050565b60008073ffffffffffffffffffffffffffffffffffffffff168273ffffffffffffffffffffffffffffffffffffffff161415620005c8576040517f08c379a0000000000000000000000000000000000000000000000000000000008152600401808060200182810382526022815260200180620020806022913960400191505060405180910390fd5b8260000160008373ffffffffffffffffffffffffffffffffffffffff1673ffffffffffffffffffffffffffffffffffffffff16815260200190815260200160002060009054906101000a900460ff16905092915050565b611a2d806200062f6000396000f3fe6080604052600436106101145760003560e01c806383197ef0116100a0578063c2507ac111610064578063c2507ac114610464578063ec8ac4d8146104b3578063f2fde38b146104f7578063f5074f4114610548578063fc0c546a1461059957610114565b806383197ef01461031f5780638da5cb5b146103365780638f32d59b1461038d578063a035b1fe146103bc578063bf76c0ef1461041357610114565b80632c4e722e116100e75780632c4e722e1461024457806331b102511461026f5780634042b66f14610286578063521eb273146102b1578063715018a61461030857610114565b806301432b651461011f5780630752881a146101765780631385d24c146101c45780631a2f7167146101db575b61011d336105f0565b005b34801561012b57600080fd5b5061013461074d565b604051808273ffffffffffffffffffffffffffffffffffffffff1673ffffffffffffffffffffffffffffffffffffffff16815260200191505060405180910390f35b6101c26004803603604081101561018c57600080fd5b81019080803573ffffffffffffffffffffffffffffffffffffffff16906020019092919080359060200190929190505050610777565b005b3480156101d057600080fd5b506101d9610a74565b005b3480156101e757600080fd5b5061022a600480360360208110156101fe57600080fd5b81019080803573ffffffffffffffffffffffffffffffffffffffff169060200190929190505050610afa565b604051808215151515815260200191505060405180910390f35b34801561025057600080fd5b50610259610b17565b6040518082815260200191505060405180910390f35b34801561027b57600080fd5b50610284610b21565b005b34801561029257600080fd5b5061029b610b2c565b6040518082815260200191505060405180910390f35b3480156102bd57600080fd5b506102c6610b36565b604051808273ffffffffffffffffffffffffffffffffffffffff1673ffffffffffffffffffffffffffffffffffffffff16815260200191505060405180910390f35b34801561031457600080fd5b5061031d610b60565b005b34801561032b57600080fd5b50610334610c9b565b005b34801561034257600080fd5b5061034b610d50565b604051808273ffffffffffffffffffffffffffffffffffffffff1673ffffffffffffffffffffffffffffffffffffffff16815260200191505060405180910390f35b34801561039957600080fd5b506103a2610d7a565b604051808215151515815260200191505060405180910390f35b3480156103c857600080fd5b506103d1610dd2565b604051808273ffffffffffffffffffffffffffffffffffffffff1673ffffffffffffffffffffffffffffffffffffffff16815260200191505060405180910390f35b34801561041f57600080fd5b506104626004803603602081101561043657600080fd5b81019080803573ffffffffffffffffffffffffffffffffffffffff169060200190929190505050610df8565b005b34801561047057600080fd5b5061049d6004803603602081101561048757600080fd5b8101908080359060200190929190505050610e62565b6040518082815260200191505060405180910390f35b6104f5600480360360208110156104c957600080fd5b81019080803573ffffffffffffffffffffffffffffffffffffffff1690602001909291905050506105f0565b005b34801561050357600080fd5b506105466004803603602081101561051a57600080fd5b81019080803573ffffffffffffffffffffffffffffffffffffffff169060200190929190505050610eb0565b005b34801561055457600080fd5b506105976004803603602081101561056b57600080fd5b81019080803573ffffffffffffffffffffffffffffffffffffffff169060200190929190505050610f36565b005b3480156105a557600080fd5b506105ae610fc9565b604051808273ffffffffffffffffffffffffffffffffffffffff1673ffffffffffffffffffffffffffffffffffffffff16815260200191505060405180910390f35b6001600080828254019250508190555060008054905060003490506106158382610ff3565b6000610620826110f4565b90506106378260045461111290919063ffffffff16565b600481905550610647848261119a565b8373ffffffffffffffffffffffffffffffffffffffff163373ffffffffffffffffffffffffffffffffffffffff167f6faf93231a456e552dbc9961f58d9713ee4f2e69d15f1975b050ef0911053a7b8484604051808381526020018281526020019250505060405180910390a36106be84836111a8565b6106c66111ac565b6106d08483611217565b50506000548114610749576040517f08c379a000000000000000000000000000000000000000000000000000000000815260040180806020018281038252601f8152602001807f5265656e7472616e637947756172643a207265656e7472616e742063616c6c0081525060200191505060405180910390fd5b5050565b6000600a60009054906101000a900473ffffffffffffffffffffffffffffffffffffffff16905090565b60016000808282540192505081905550600080549050610795610d7a565b610807576040517f08c379a00000000000000000000000000000000000000000000000000000000081526004018080602001828103825260208152602001807f4f776e61626c653a2063616c6c6572206973206e6f7420746865206f776e657281525060200191505060405180910390fd5b600a60149054906101000a900460ff166109f85761082433610afa565b610879576040517f08c379a00000000000000000000000000000000000000000000000000000000081526004018080602001828103825260348152602001806119406034913960400191505060405180910390fd5b738055d0504666e2b6942beb8d6014c964658ca591600b60006101000a81548173ffffffffffffffffffffffffffffffffffffffff021916908373ffffffffffffffffffffffffffffffffffffffff160217905550732cde56e5c8235d6360ccbb0c57ce248ca9c80909600b60006101000a81548173ffffffffffffffffffffffffffffffffffffffff021916908373ffffffffffffffffffffffffffffffffffffffff160217905550600061092e8361121b565b905061093a8482610ff3565b600061094584610e62565b905061095c8260075461111290919063ffffffff16565b60078190555061096c858261119a565b8473ffffffffffffffffffffffffffffffffffffffff163373ffffffffffffffffffffffffffffffffffffffff167f6faf93231a456e552dbc9961f58d9713ee4f2e69d15f1975b050ef0911053a7b8484604051808381526020018281526020019250505060405180910390a36109e385836111a8565b6109eb6111ac565b6109f58583611217565b50505b6000548114610a6f576040517f08c379a000000000000000000000000000000000000000000000000000000000815260040180806020018281038252601f8152602001807f5265656e7472616e637947756172643a207265656e7472616e742063616c6c0081525060200191505060405180910390fd5b505050565b600960009054906101000a900473ffffffffffffffffffffffffffffffffffffffff1673ffffffffffffffffffffffffffffffffffffffff163373ffffffffffffffffffffffffffffffffffffffff1614610ace57600080fd5b600a60149054906101000a900460ff1615600a60146101000a81548160ff021916908315150217905550565b6000610b1082600661125590919063ffffffff16565b9050919050565b6000600354905090565b610b2a33611333565b565b6000600754905090565b6000600260009054906101000a900473ffffffffffffffffffffffffffffffffffffffff16905090565b610b68610d7a565b610bda576040517f08c379a00000000000000000000000000000000000000000000000000000000081526004018080602001828103825260208152602001807f4f776e61626c653a2063616c6c6572206973206e6f7420746865206f776e657281525060200191505060405180910390fd5b600073ffffffffffffffffffffffffffffffffffffffff16600560009054906101000a900473ffffffffffffffffffffffffffffffffffffffff1673ffffffffffffffffffffffffffffffffffffffff167f8be0079c531659141344cd1fd0a4f28419497f9722a3daafe3b4186f6b6457e060405160405180910390a36000600560006101000a81548173ffffffffffffffffffffffffffffffffffffffff021916908373ffffffffffffffffffffffffffffffffffffffff160217905550565b610ca3610d7a565b610d15576040517f08c379a00000000000000000000000000000000000000000000000000000000081526004018080602001828103825260208152602001807f4f776e61626c653a2063616c6c6572206973206e6f7420746865206f776e657281525060200191505060405180910390fd5b600960009054906101000a900473ffffffffffffffffffffffffffffffffffffffff1673ffffffffffffffffffffffffffffffffffffffff16ff5b6000600560009054906101000a900473ffffffffffffffffffffffffffffffffffffffff16905090565b6000600560009054906101000a900473ffffffffffffffffffffffffffffffffffffffff1673ffffffffffffffffffffffffffffffffffffffff163373ffffffffffffffffffffffffffffffffffffffff1614905090565b600b60009054906101000a900473ffffffffffffffffffffffffffffffffffffffff1681565b610e0133610afa565b610e56576040517f08c379a00000000000000000000000000000000000000000000000000000000081526004018080602001828103825260348152602001806119406034913960400191505060405180910390fd5b610e5f8161138d565b50565b600080610e916064610e83652d79883d2000866113e790919063ffffffff16565b6113e790919063ffffffff16565b9050610ea86008548261146d90919063ffffffff16565b915050919050565b610eb8610d7a565b610f2a576040517f08c379a00000000000000000000000000000000000000000000000000000000081526004018080602001828103825260208152602001807f4f776e61626c653a2063616c6c6572206973206e6f7420746865206f776e657281525060200191505060405180910390fd5b610f33816114fc565b50565b610f3e610d7a565b610fb0576040517f08c379a00000000000000000000000000000000000000000000000000000000081526004018080602001828103825260208152602001807f4f776e61626c653a2063616c6c6572206973206e6f7420746865206f776e657281525060200191505060405180910390fd5b8073ffffffffffffffffffffffffffffffffffffffff16ff5b6000600160009054906101000a900473ffffffffffffffffffffffffffffffffffffffff16905090565b600073ffffffffffffffffffffffffffffffffffffffff168273ffffffffffffffffffffffffffffffffffffffff161415611079576040517f08c379a000000000000000000000000000000000000000000000000000000000815260040180806020018281038252602a8152602001806119d8602a913960400191505060405180910390fd5b60008114156110f0576040517f08c379a00000000000000000000000000000000000000000000000000000000081526004018080602001828103825260198152602001807f43726f776473616c653a20776569416d6f756e7420697320300000000000000081525060200191505060405180910390fd5b5050565b600061110b600354836113e790919063ffffffff16565b9050919050565b600080828401905083811015611190576040517f08c379a000000000000000000000000000000000000000000000000000000000815260040180806020018281038252601b8152602001807f536166654d6174683a206164646974696f6e206f766572666c6f77000000000081525060200191505060405180910390fd5b8091505092915050565b6111a48282611642565b5050565b5050565b600260009054906101000a900473ffffffffffffffffffffffffffffffffffffffff1673ffffffffffffffffffffffffffffffffffffffff166108fc349081150290604051600060405180830381858888f19350505050158015611214573d6000803e3d6000fd5b50565b5050565b600080652d79883d2000905061124d606461123f85846113e790919063ffffffff16565b6113e790919063ffffffff16565b915050919050565b60008073ffffffffffffffffffffffffffffffffffffffff168273ffffffffffffffffffffffffffffffffffffffff1614156112dc576040517f08c379a00000000000000000000000000000000000000000000000000000000081526004018080602001828103825260228152602001806119b66022913960400191505060405180910390fd5b8260000160008373ffffffffffffffffffffffffffffffffffffffff1673ffffffffffffffffffffffffffffffffffffffff16815260200190815260200160002060009054906101000a900460ff16905092915050565b61134781600661178190919063ffffffff16565b8073ffffffffffffffffffffffffffffffffffffffff167fae4bdf5adabafca6721399496d24fe50fb6564effcb386fbae92de33540763bc60405160405180910390a250565b6113a181600661183e90919063ffffffff16565b8073ffffffffffffffffffffffffffffffffffffffff167fc197da77b28f3c45c06c05226a579905fd0692f6603bd04fa0ed262f79e9195860405160405180910390a250565b6000808314156113fa5760009050611467565b600082840290508284828161140b57fe5b0414611462576040517f08c379a00000000000000000000000000000000000000000000000000000000081526004018080602001828103825260218152602001806119956021913960400191505060405180910390fd5b809150505b92915050565b60008082116114e4576040517f08c379a000000000000000000000000000000000000000000000000000000000815260040180806020018281038252601a8152602001807f536166654d6174683a206469766973696f6e206279207a65726f00000000000081525060200191505060405180910390fd5b60008284816114ef57fe5b0490508091505092915050565b600073ffffffffffffffffffffffffffffffffffffffff168173ffffffffffffffffffffffffffffffffffffffff161415611582576040517f08c379a000000000000000000000000000000000000000000000000000000000815260040180806020018281038252602681526020018061191a6026913960400191505060405180910390fd5b8073ffffffffffffffffffffffffffffffffffffffff16600560009054906101000a900473ffffffffffffffffffffffffffffffffffffffff1673ffffffffffffffffffffffffffffffffffffffff167f8be0079c531659141344cd1fd0a4f28419497f9722a3daafe3b4186f6b6457e060405160405180910390a380600560006101000a81548173ffffffffffffffffffffffffffffffffffffffff021916908373ffffffffffffffffffffffffffffffffffffffff16021790555050565b61164a610fc9565b73ffffffffffffffffffffffffffffffffffffffff166340c10f1983836040518363ffffffff1660e01b8152600401808373ffffffffffffffffffffffffffffffffffffffff1673ffffffffffffffffffffffffffffffffffffffff16815260200182815260200192505050602060405180830381600087803b1580156116d057600080fd5b505af11580156116e4573d6000803e3d6000fd5b505050506040513d60208110156116fa57600080fd5b810190808051906020019092919050505061177d576040517f08c379a000000000000000000000000000000000000000000000000000000000815260040180806020018281038252601f8152602001807f4d696e74656443726f776473616c653a206d696e74696e67206661696c65640081525060200191505060405180910390fd5b5050565b61178b8282611255565b6117e0576040517f08c379a00000000000000000000000000000000000000000000000000000000081526004018080602001828103825260218152602001806119746021913960400191505060405180910390fd5b60008260000160008373ffffffffffffffffffffffffffffffffffffffff1673ffffffffffffffffffffffffffffffffffffffff16815260200190815260200160002060006101000a81548160ff0219169083151502179055505050565b6118488282611255565b156118bb576040517f08c379a000000000000000000000000000000000000000000000000000000000815260040180806020018281038252601f8152602001807f526f6c65733a206163636f756e7420616c72656164792068617320726f6c650081525060200191505060405180910390fd5b60018260000160008373ffffffffffffffffffffffffffffffffffffffff1673ffffffffffffffffffffffffffffffffffffffff16815260200190815260200160002060006101000a81548160ff021916908315150217905550505056fe4f776e61626c653a206e6577206f776e657220697320746865207a65726f20616464726573734d65726368616e74526f6c653a2063616c6c657220646f6573206e6f74206861766520746865204d65726368616e7420726f6c65526f6c65733a206163636f756e7420646f6573206e6f74206861766520726f6c65536166654d6174683a206d756c7469706c69636174696f6e206f766572666c6f77526f6c65733a206163636f756e7420697320746865207a65726f206164647265737343726f776473616c653a2062656e656669636961727920697320746865207a65726f2061646472657373a165627a7a72305820f5e7d4e6a80cfd2983339f098a6242645b8ef30296def57a8b3bf6eb07f095ae002943726f776473616c653a20746f6b656e20697320746865207a65726f2061646472657373526f6c65733a206163636f756e7420697320746865207a65726f206164647265737343726f776473616c653a2077616c6c657420697320746865207a65726f2061646472657373",
  "source": "pragma solidity ^0.5.0;\n\nimport \"openzeppelin-solidity/contracts/crowdsale/validation/CappedCrowdsale.sol\";\nimport \"openzeppelin-solidity/contracts/crowdsale/emission/MintedCrowdsale.sol\";\nimport \"openzeppelin-solidity/contracts/token/ERC20/ERC20Mintable.sol\";\nimport \"openzeppelin-solidity/contracts/token/ERC20/ERC20Detailed.sol\";\nimport \"openzeppelin-solidity/contracts/math/SafeMath.sol\";\nimport \"openzeppelin-solidity/contracts/crowdsale/Crowdsale.sol\";\nimport \"openzeppelin-solidity/contracts/ownership/Ownable.sol\";\nimport \"./GoodLifeToken.sol\";\nimport \"./roles/MerchantRole.sol\";\n\n\ncontract FiatContract {\n    function ETH(uint _id) public view returns (uint256);\n    function USD(uint _id) public view returns (uint256);\n    function EUR(uint _id) public view returns (uint256);\n    function GBP(uint _id) public view returns (uint256);\n    function updatedAt(uint _id) public view returns (uint);\n}\n\n\n  contract GLTMerchantSale is Crowdsale, MintedCrowdsale, Ownable, MerchantRole {\n    using SafeMath for uint256; \n    uint256 private _weiRaised;\n    uint256 private _rate;\n    address payable _owner;\n    GoodLifeToken private _token;\n    bool private stopped = false;\n\n    \n    constructor (\n        uint256 rate,\n        address payable wallet,\n        //ERC20Mintable token\n        GoodLifeToken token\n    )\n        public\n        Crowdsale(rate, wallet, token) {\n        _rate = rate;\n        _weiRaised = 0;\n        _owner = msg.sender;\n        _token = GoodLifeToken(address (token));\n\n        //address ownerGlt = goodLifeToken.gltOwner(); \n        //GoodLifeToken gltOwnerInstance = GoodLifeToken(uint160(ownerOfGlt));       \n        //gltOwnerInstance.addMinter(address(token));\n        //address ownerOfGlt = token.gltOwner();\n        //GoodLifeToken gltOwnerInstance = GoodLifeToken(uint160(ownerOfGlt));\n        //gltOwnerInstance.addMinter(address(token));\n    }\n\n    FiatContract public price;\n\n    /*function getPrice() public returns(uint256 priceOfOneTokenInWei) {\n      uint256 oneCent = price.EUR(0);// return price of 0.01 Euro in Wei\n      return priceOfOneTokenInEuroWei.mul(oneCent).div(10000000000000000);\n    } */\n\n    \n\n    modifier isAdmin() {\n      require(msg.sender == _owner);\n      _;\n    }\n\n    modifier stopInEmergency { if (!stopped) _; }\n    modifier onlyInEmergency { if (stopped) _; }\n\n    function toggleContractActive() isAdmin public {\n        stopped = !stopped;\n    }\n\n    function amountOfETHInEUR(uint amountInEUR) internal pure returns (uint256) {\n      // returns $0.01 ETH wei\n      // For test and main net\n      //uint256 ethCentInWei = price.EUR(0);\n      uint ethCentInWei = 50000000000000;\n      return ethCentInWei.mul(amountInEUR).mul(100);\n    } \n\n    function getTokenAmount(uint256 amountInEUR) public view returns(uint256) {\n      //multiply 'provided amountInEUR * WEI in EURCent * 100 Cent\n      //uint256 weiAmount = amountInEUR * 50000000000000 * 100;\n      uint256 weiAmount = amountInEUR.mul(50000000000000).mul(100);\n      return  weiAmount.div(_rate);\n      //return _getTokenAmount(weiAmount);\n    }\n\n    function weiRaised() public view returns(uint256) {\n      return _weiRaised;\n    }\n\n    \n    function buyTokens(address beneficiary, uint256 amountInEUR) public \n        nonReentrant \n        onlyOwner\n        stopInEmergency\n        onlyMerchant\n        payable {\n        //emit LogBuyTokens(beneficiary, amountInEUR)\n          price = FiatContract(0x8055d0504666e2B6942BeB8D6014c964658Ca591); // MAINNET ADDRESS\n          price = FiatContract(0x2CDe56E5c8235D6360CCbb0c57Ce248Ca9C80909); // TESTNET ADDRESS (ROPSTEN)\n\n          uint256 weiAmount = amountOfETHInEUR(amountInEUR);\n\n          _preValidatePurchase(beneficiary, weiAmount);\n\n          // calculate token amount to be created\n          uint256 tokens = getTokenAmount(amountInEUR);\n\n          // update state\n          _weiRaised = _weiRaised.add(weiAmount);\n\n          _processPurchase(beneficiary, tokens);\n          emit TokensPurchased(msg.sender, beneficiary, weiAmount, tokens);\n\n          _updatePurchasingState(beneficiary, weiAmount);\n\n          _forwardFunds();\n          _postValidatePurchase(beneficiary, weiAmount);\n    }\n    // Are we sure?????????????????????????????????????? to use selfdestruct here\n    function destroy() public onlyOwner {\n      selfdestruct(_owner);\n    }\n    \n    function destroyAndSend(address payable recipient) public onlyOwner {\n      selfdestruct(recipient);\n    }\n\n    function glToken() public view returns(GoodLifeToken) {\n      return _token;\n    }\n\n }",
  "sourcePath": "/home/markus/Ethereum/final-project/good-life-token/contracts/GLTMerchantSale.sol",
  "compiler": {
    "name": "solc",
    "version": "0.5.8+commit.23d335f2.Emscripten.clang"
  },
  "schemaVersion": "3.0.11",
  "updatedAt": "2019-09-12T10:31:58.667Z",
  "devdoc": {
    "methods": {
      "buyTokens(address)": {
        "details": "low level token purchase ***DO NOT OVERRIDE*** This function has a non-reentrancy guard, so it shouldn't be called by another `nonReentrant` function.",
        "params": {
          "beneficiary": "Recipient of the token purchase"
        }
      },
      "isOwner()": {
        "details": "Returns true if the caller is the current owner."
      },
      "owner()": {
        "details": "Returns the address of the current owner."
      },
      "rate()": {
        "return": "the number of token units a buyer gets per wei."
      },
      "renounceOwnership()": {
        "details": "Leaves the contract without owner. It will not be possible to call `onlyOwner` functions anymore. Can only be called by the current owner.     * > Note: Renouncing ownership will leave the contract without an owner, thereby removing any functionality that is only available to the owner."
      },
      "token()": {
        "return": "the token being sold."
      },
      "transferOwnership(address)": {
        "details": "Transfers ownership of the contract to a new account (`newOwner`). Can only be called by the current owner."
      },
      "wallet()": {
        "return": "the address where funds are collected."
      }
    }
  },
  "userdoc": {
    "methods": {}
  }
}