{
  "contractName": "MinterRoleMock",
  "abi": [
    {
      "constant": false,
      "inputs": [],
      "name": "renounceMinter",
      "outputs": [],
      "payable": false,
      "stateMutability": "nonpayable",
      "type": "function"
    },
    {
      "constant": true,
      "inputs": [
        {
          "name": "account",
          "type": "address"
        }
      ],
      "name": "isMinter",
      "outputs": [
        {
          "name": "",
          "type": "bool"
        }
      ],
      "payable": false,
      "stateMutability": "view",
      "type": "function"
    },
    {
      "inputs": [],
      "payable": false,
      "stateMutability": "nonpayable",
      "type": "constructor"
    },
    {
      "anonymous": false,
      "inputs": [
        {
          "indexed": true,
          "name": "account",
          "type": "address"
        }
      ],
      "name": "MinterAdded",
      "type": "event"
    },
    {
      "anonymous": false,
      "inputs": [
        {
          "indexed": true,
          "name": "account",
          "type": "address"
        }
      ],
      "name": "MinterRemoved",
      "type": "event"
    },
    {
      "constant": false,
      "inputs": [
        {
          "name": "account",
          "type": "address"
        }
      ],
      "name": "addMinter",
      "outputs": [],
      "payable": false,
      "stateMutability": "nonpayable",
      "type": "function"
    },
    {
      "constant": false,
      "inputs": [
        {
          "name": "account",
          "type": "address"
        }
      ],
      "name": "removeMinter",
      "outputs": [],
      "payable": false,
      "stateMutability": "nonpayable",
      "type": "function"
    },
    {
      "constant": true,
      "inputs": [],
      "name": "onlyMinterMock",
      "outputs": [],
      "payable": false,
      "stateMutability": "view",
      "type": "function"
    }
  ],
  "bytecode": "0x608060405234801561001057600080fd5b506100203361003860201b60201c565b6100333361003860201b61025e1760201c565b610255565b61005081600061009660201b6103f01790919060201c565b8073ffffffffffffffffffffffffffffffffffffffff167f6ae172837ea30b801fbfcdd4108aa1d5bf8ff775444fd70256b44e6bf3dfc3f660405160405180910390a250565b6100a6828261017760201b60201c565b15610119576040517f08c379a000000000000000000000000000000000000000000000000000000000815260040180806020018281038252601f8152602001807f526f6c65733a206163636f756e7420616c72656164792068617320726f6c650081525060200191505060405180910390fd5b60018260000160008373ffffffffffffffffffffffffffffffffffffffff1673ffffffffffffffffffffffffffffffffffffffff16815260200190815260200160002060006101000a81548160ff0219169083151502179055505050565b60008073ffffffffffffffffffffffffffffffffffffffff168273ffffffffffffffffffffffffffffffffffffffff1614156101fe576040517f08c379a000000000000000000000000000000000000000000000000000000000815260040180806020018281038252602281526020018061088b6022913960400191505060405180910390fd5b8260000160008373ffffffffffffffffffffffffffffffffffffffff1673ffffffffffffffffffffffffffffffffffffffff16815260200190815260200160002060009054906101000a900460ff16905092915050565b610627806102646000396000f3fe608060405234801561001057600080fd5b50600436106100575760003560e01c80633092afd51461005c578063983b2d56146100a057806398650275146100e4578063aa271e1a146100ee578063b5dba35b1461014a575b600080fd5b61009e6004803603602081101561007257600080fd5b81019080803573ffffffffffffffffffffffffffffffffffffffff169060200190929190505050610154565b005b6100e2600480360360208110156100b657600080fd5b81019080803573ffffffffffffffffffffffffffffffffffffffff169060200190929190505050610160565b005b6100ec6101ca565b005b6101306004803603602081101561010457600080fd5b81019080803573ffffffffffffffffffffffffffffffffffffffff1690602001909291905050506101d5565b604051808215151515815260200191505060405180910390f35b6101526101f2565b005b61015d81610252565b50565b610169336101d5565b6101be576040517f08c379a00000000000000000000000000000000000000000000000000000000081526004018080602001828103825260308152602001806105896030913960400191505060405180910390fd5b6101c78161025e565b50565b6101d333610252565b565b60006101eb8260006102b890919063ffffffff16565b9050919050565b6101fb336101d5565b610250576040517f08c379a00000000000000000000000000000000000000000000000000000000081526004018080602001828103825260308152602001806105896030913960400191505060405180910390fd5b565b61025b81610396565b50565b6102728160006103f090919063ffffffff16565b8073ffffffffffffffffffffffffffffffffffffffff167f6ae172837ea30b801fbfcdd4108aa1d5bf8ff775444fd70256b44e6bf3dfc3f660405160405180910390a250565b60008073ffffffffffffffffffffffffffffffffffffffff168273ffffffffffffffffffffffffffffffffffffffff16141561033f576040517f08c379a00000000000000000000000000000000000000000000000000000000081526004018080602001828103825260228152602001806105da6022913960400191505060405180910390fd5b8260000160008373ffffffffffffffffffffffffffffffffffffffff1673ffffffffffffffffffffffffffffffffffffffff16815260200190815260200160002060009054906101000a900460ff16905092915050565b6103aa8160006104cb90919063ffffffff16565b8073ffffffffffffffffffffffffffffffffffffffff167fe94479a9f7e1952cc78f2d6baab678adc1b772d936c6583def489e524cb6669260405160405180910390a250565b6103fa82826102b8565b1561046d576040517f08c379a000000000000000000000000000000000000000000000000000000000815260040180806020018281038252601f8152602001807f526f6c65733a206163636f756e7420616c72656164792068617320726f6c650081525060200191505060405180910390fd5b60018260000160008373ffffffffffffffffffffffffffffffffffffffff1673ffffffffffffffffffffffffffffffffffffffff16815260200190815260200160002060006101000a81548160ff0219169083151502179055505050565b6104d582826102b8565b61052a576040517f08c379a00000000000000000000000000000000000000000000000000000000081526004018080602001828103825260218152602001806105b96021913960400191505060405180910390fd5b60008260000160008373ffffffffffffffffffffffffffffffffffffffff1673ffffffffffffffffffffffffffffffffffffffff16815260200190815260200160002060006101000a81548160ff021916908315150217905550505056fe4d696e746572526f6c653a2063616c6c657220646f6573206e6f74206861766520746865204d696e74657220726f6c65526f6c65733a206163636f756e7420646f6573206e6f74206861766520726f6c65526f6c65733a206163636f756e7420697320746865207a65726f2061646472657373a165627a7a7230582051f3d6774b0fd50794f9bd2a6631f2e45908e8a912ab1cdacbc9276878af77100029526f6c65733a206163636f756e7420697320746865207a65726f2061646472657373",
  "source": "// The MIT License(MIT)\n\n// Copyright(c) 2016 - 2019 zOS Global Limited\n\n// Permission is hereby granted, free of charge, to any person obtaining\n// a copy of this software and associated documentation files(the\n// \"Software\"), to deal in the Software without restriction, including\n// without limitation the rights to use, copy, modify, merge, publish,\n//   distribute, sublicense, and / or sell copies of the Software, and to\n// permit persons to whom the Software is furnished to do so, subject to\n// the following conditions:\n\n// The above copyright notice and this permission notice shall be included\n//   in all copies or substantial portions of the Software.\n\n// THE SOFTWARE IS PROVIDED \"AS IS\", WITHOUT WARRANTY OF ANY KIND, EXPRESS\n// OR IMPLIED, INCLUDING BUT NOT LIMITED TO THE WARRANTIES OF\n// MERCHANTABILITY, FITNESS FOR A PARTICULAR PURPOSE AND NONINFRINGEMENT.\n// IN NO EVENT SHALL THE AUTHORS OR COPYRIGHT HOLDERS BE LIABLE FOR ANY\n// CLAIM, DAMAGES OR OTHER LIABILITY, WHETHER IN AN ACTION OF CONTRACT,\n//   TORT OR OTHERWISE, ARISING FROM, OUT OF OR IN CONNECTION WITH THE\n// SOFTWARE OR THE USE OR OTHER DEALINGS IN THE SOFTWARE.\n\n// Based on OpenZeppelin's https://github.com/OpenZeppelin/openzeppelin-contracts/blob/master/contracts/mocks/MinterRoleMock.sol\n\npragma solidity ^0.5.0;\n\nimport \"openzeppelin-solidity/contracts/access/roles/MinterRole.sol\";\n\ncontract MinterRoleMock is MinterRole {\n    constructor() public MinterRole() {\n        super._addMinter(msg.sender);\n    }\n\n    function addMinter(address account) public onlyMinter {\n        super._addMinter(account);\n    }\n\n    function removeMinter(address account) public {\n        _removeMinter(account);\n    }\n\n    function onlyMinterMock() public view onlyMinter {\n        // solhint-disable-previous-line no-empty-blocks\n    }\n\n    // Causes a compilation error if super._removeMinter is not internal\n    function _removeMinter(address account) internal {\n        super._removeMinter(account);\n    }\n}\n",
  "sourcePath": "/home/markus/Ethereum/final-project/good-life-token/contracts/mocks/MinterRoleMock.sol",
  "compiler": {
    "name": "solc",
    "version": "0.5.8+commit.23d335f2.Emscripten.clang"
  },
  "schemaVersion": "3.0.11",
  "updatedAt": "2019-09-12T10:31:44.247Z",
  "devdoc": {
    "methods": {}
  },
  "userdoc": {
    "methods": {}
  }
}