{
  "contractName": "ShoppingBasket",
  "abi": [
    {
      "constant": true,
      "inputs": [
        {
          "name": "",
          "type": "uint256"
        }
      ],
      "name": "basket",
      "outputs": [
        {
          "name": "name",
          "type": "string"
        },
        {
          "name": "sku",
          "type": "uint256"
        },
        {
          "name": "quantity",
          "type": "uint256"
        },
        {
          "name": "price",
          "type": "uint256"
        },
        {
          "name": "ecoFootprint",
          "type": "uint256"
        }
      ],
      "payable": false,
      "stateMutability": "view",
      "type": "function"
    },
    {
      "inputs": [],
      "payable": false,
      "stateMutability": "nonpayable",
      "type": "constructor"
    },
    {
      "anonymous": false,
      "inputs": [
        {
          "indexed": false,
          "name": "sku",
          "type": "uint256"
        }
      ],
      "name": "LogForAddItemToBasket",
      "type": "event"
    },
    {
      "anonymous": false,
      "inputs": [
        {
          "indexed": false,
          "name": "tokenAmount",
          "type": "uint256"
        }
      ],
      "name": "LogSold",
      "type": "event"
    },
    {
      "constant": false,
      "inputs": [
        {
          "name": "_name",
          "type": "string"
        },
        {
          "name": "_quantity",
          "type": "uint256"
        },
        {
          "name": "_price",
          "type": "uint256"
        },
        {
          "name": "_ecoFootprint",
          "type": "uint256"
        }
      ],
      "name": "addItem",
      "outputs": [
        {
          "name": "",
          "type": "bool"
        }
      ],
      "payable": false,
      "stateMutability": "nonpayable",
      "type": "function"
    },
    {
      "constant": false,
      "inputs": [],
      "name": "purchaseItems",
      "outputs": [
        {
          "name": "",
          "type": "uint256"
        }
      ],
      "payable": false,
      "stateMutability": "nonpayable",
      "type": "function"
    },
    {
      "constant": true,
      "inputs": [
        {
          "name": "_sku",
          "type": "uint256"
        }
      ],
      "name": "fetchItem",
      "outputs": [
        {
          "name": "name",
          "type": "string"
        },
        {
          "name": "sku",
          "type": "uint256"
        },
        {
          "name": "quantity",
          "type": "uint256"
        },
        {
          "name": "price",
          "type": "uint256"
        },
        {
          "name": "ecoFootprint",
          "type": "uint256"
        }
      ],
      "payable": false,
      "stateMutability": "view",
      "type": "function"
    }
  ],
  "bytecode": "0x608060405260006002556064600355600a60045534801561001f57600080fd5b50336000806101000a81548173ffffffffffffffffffffffffffffffffffffffff021916908373ffffffffffffffffffffffffffffffffffffffff160217905550600060018190555061090a806100776000396000f3fe608060405234801561001057600080fd5b506004361061004c5760003560e01c80638c7e087514610051578063ad4b9cfb14610114578063d34b8a7a146101d7578063dc0dd677146101f5575b600080fd5b61007d6004803603602081101561006757600080fd5b81019080803590602001909291905050506102e6565b6040518080602001868152602001858152602001848152602001838152602001828103825287818151815260200191508051906020019080838360005b838110156100d55780820151818401526020810190506100ba565b50505050905090810190601f1680156101025780820380516001836020036101000a031916815260200191505b50965050505050505060405180910390f35b6101406004803603602081101561012a57600080fd5b81019080803590602001909291905050506103b4565b6040518080602001868152602001858152602001848152602001838152602001828103825287818151815260200191508051906020019080838360005b8381101561019857808201518184015260208101905061017d565b50505050905090810190601f1680156101c55780820380516001836020036101000a031916815260200191505b50965050505050505060405180910390f35b6101df6104e9565b6040518082815260200191505060405180910390f35b6102cc6004803603608081101561020b57600080fd5b810190808035906020019064010000000081111561022857600080fd5b82018360208201111561023a57600080fd5b8035906020019184600183028401116401000000008311171561025c57600080fd5b91908080601f016020809104026020016040519081016040528093929190818152602001838380828437600081840152601f19601f82011690508083019250505050505050919291929080359060200190929190803590602001909291908035906020019092919050505061052c565b604051808215151515815260200191505060405180910390f35b6005602052806000526040600020600091509050806000018054600181600116156101000203166002900480601f0160208091040260200160405190810160405280929190818152602001828054600181600116156101000203166002900480156103925780601f1061036757610100808354040283529160200191610392565b820191906000526020600020905b81548152906001019060200180831161037557829003601f168201915b5050505050908060010154908060020154908060030154908060040154905085565b6060600080600080600560008781526020019081526020016000206000018054600181600116156101000203166002900480601f0160208091040260200160405190810160405280929190818152602001828054600181600116156101000203166002900480156104665780601f1061043b57610100808354040283529160200191610466565b820191906000526020600020905b81548152906001019060200180831161044957829003601f168201915b505050505094506005600087815260200190815260200160002060010154935060056000878152602001908152602001600020600201549250600560008781526020019081526020016000206003015491506005600087815260200190815260200160002060040154905084848484849450945094509450945091939590929450565b60007fe64ca8c671e48636f85f3008c1dd538e36bfa74fb6f2790b56b72fcc33b879ef6002546040518082815260200191505060405180910390a1600254905090565b60007f3d9698fc75d82d7226c22f11bbfbb06659a3b3381cf9efeb362cd0aa966bd3ff6001546040518082815260200191505060405180910390a16040518060a0016040528086815260200160015481526020018581526020018481526020018381525060056000600154815260200190815260200160002060008201518160000190805190602001906105c1929190610818565b50602082015181600101556040820151816002015560608201518160030155608082015181600401559050506106026001805461067b90919063ffffffff16565b60018190555061066961065860035461064a60045461063c8761062e8b8b61070390919063ffffffff16565b61070390919063ffffffff16565b61078990919063ffffffff16565b61078990919063ffffffff16565b60025461067b90919063ffffffff16565b60028190555060019050949350505050565b6000808284019050838110156106f9576040517f08c379a000000000000000000000000000000000000000000000000000000000815260040180806020018281038252601b8152602001807f536166654d6174683a206164646974696f6e206f766572666c6f77000000000081525060200191505060405180910390fd5b8091505092915050565b6000808314156107165760009050610783565b600082840290508284828161072757fe5b041461077e576040517f08c379a00000000000000000000000000000000000000000000000000000000081526004018080602001828103825260218152602001806108be6021913960400191505060405180910390fd5b809150505b92915050565b6000808211610800576040517f08c379a000000000000000000000000000000000000000000000000000000000815260040180806020018281038252601a8152602001807f536166654d6174683a206469766973696f6e206279207a65726f00000000000081525060200191505060405180910390fd5b600082848161080b57fe5b0490508091505092915050565b828054600181600116156101000203166002900490600052602060002090601f016020900481019282601f1061085957805160ff1916838001178555610887565b82800160010185558215610887579182015b8281111561088657825182559160200191906001019061086b565b5b5090506108949190610898565b5090565b6108ba91905b808211156108b657600081600090555060010161089e565b5090565b9056fe536166654d6174683a206d756c7469706c69636174696f6e206f766572666c6f77a165627a7a72305820c0579205a24d2ddad2c96b078d28be6f2eff8bc1a062f7fa0f010c0d6e33c49a0029",
  "source": "/*\n    This exercise has been updated to use Solidity version 0.5\n    Breaking changes from 0.4 to 0.5 can be found here: \n    https://solidity.readthedocs.io/en/v0.5.0/050-breaking-changes.html\n*/\n\nimport \"openzeppelin-solidity/contracts/math/SafeMath.sol\";\n\npragma solidity ^0.5.0;\n\ncontract ShoppingBasket {\n  using SafeMath for uint; \n\n  /* set owner */\n  address owner;\n\n  /* Add a variable called skuCount to track the most recent sku # */\n  uint private skuCount;\n\n  /* amount of tokens that the purchase contains */\n  uint private tokenAmount = 0;\n\n  /* Factor that is determined by the number of decimal places, e. g. 2 numbers of decimal places corresponds to a factor of 100*/\n  uint private decimalFactor = 100;\n\n  /* */\n  uint private ecoFootprintDecimalFactor = 10;\n\n\n  /* Add a line that creates a public mapping that maps the SKU (a number) to an Item.\n     Call this mappings items\n  */\n  mapping(uint => Item) public basket;\n  \n  /*Struct named Item.\n    It consists of a name, sku, quantity, price, state, seller, and buyer\n    We've left you to figure out what the appropriate types are,\n    if you need help you can ask around :)\n    Be sure to add \"payable\" to addresses that will be handling value transfer\n  */\n  struct Item {\n      string name;\n      uint sku;\n      uint quantity;\n      uint price;\n      uint ecoFootprint;\n  }\n\n  event LogForAddItemToBasket(uint sku);\n  event LogSold(uint tokenAmount);\n\n/* Create a modifer that checks if the msg.sender is the owner of the contract */\n  modifier verifyCaller (address _address) { require (msg.sender == _address); _;}\n\n\n  /* For each of the following modifiers, use what you learned about modifiers\n   to give them functionality. For example, the forSale modifier should require\n   that the item with the given sku has the state ForSale. \n   Note that the uninitialized Item.State is 0, which is also the index of the ForSale value,\n   so checking that Item.State == ForSale is not sufficient to check that an Item is for sale.\n   Hint: What item properties will be non-zero when an Item has been added?\n   */\n\n  constructor() public {\n    /* Here, set the owner as the person who instantiated the contract\n       and set your skuCount to 0. */\n    owner = msg.sender;\n    skuCount = 0;\n  }\n\n  function addItem(string memory _name, uint _quantity, uint _price, uint _ecoFootprint) public returns(bool) {\n    emit LogForAddItemToBasket(skuCount);\n    basket[skuCount] = Item({name: _name, sku: skuCount, quantity: _quantity, price: _price, ecoFootprint: _ecoFootprint});\n    skuCount = skuCount.add(1);\n    tokenAmount = tokenAmount.add(_price.mul(_quantity).mul(_ecoFootprint).div(ecoFootprintDecimalFactor).div(decimalFactor));\n    return true;\n  }\n\n  /* Add a keyword so the function can be paid. This function should transfer money\n    to the seller, set the buyer as the person who called this transaction, and set the state\n    to Sold. Be careful, this function should use 3 modifiers to check if the item is for sale,\n    if the buyer paid enough, and check the value after the function is called to make sure the buyer is\n    refunded any excess ether sent. Remember to call the event associated with this function!*/\n\n  function purchaseItems() \n    public \n    returns (uint){\n       emit LogSold(tokenAmount);\n       return tokenAmount;      \n       \n  }\n\n  function fetchItem(uint _sku) public view returns (string memory name, uint sku, uint quantity, uint price, uint ecoFootprint) {\n    name = basket[_sku].name;\n    sku = basket[_sku].sku;\n    quantity = basket[_sku].quantity;\n    price = basket[_sku].price;\n    ecoFootprint = basket[_sku].ecoFootprint;\n    return (name, sku, quantity, price, ecoFootprint);\n  }\n\n}\n",
  "sourcePath": "/home/markus/Ethereum/final-project/good-life-token/contracts/ShoppingBasket.sol",
  "compiler": {
    "name": "solc",
    "version": "0.5.8+commit.23d335f2.Emscripten.clang"
  },
  "schemaVersion": "3.0.11",
  "updatedAt": "2019-09-12T10:31:59.123Z",
  "devdoc": {
    "methods": {}
  },
  "userdoc": {
    "methods": {}
  }
}